:020000023000CC
:10C0000000400020C5C0030045F3030045F30300D2
:10C010000000000000000000000000000000000020
:10C02000000000000000000000000000A5F3030075
:10C03000000000000000000045F3030045F303008A
:10C0400045F3030045F3030061D0030045F303000B
:10C0500045F3030000000000F5C2030045F30300B0
:10C0600045F3030045F3030045F3030045F30300E4
:10C0700045F3030045F3030045F3030045F30300D4
:10C0800045F3030089C8030045F3030045F30300AB
:10C0900045C9030045F3030021F3030045F3030002
:10C0A00045F3030045F3030000000000000000001A
:10C0B0000000000000000000000000000000000080
:04C0C000000000007C
:10C0C40008B503F0E1FA09480949884202D0094A4F
:10C0D40003F0CAFB0021084A084800F071F800F098
:10C0E4004BF803F0C9FA03F00BFAFEE70020002036
:10C0F400F4F8030018000000EC0B000018200020E6
:10C10400F8B5C046F8BC08BC9E467047F8B5C046B2
:10C11400F8BC08BC9E46704710B5064C2378002B2B
:10C1240007D1054B002B02D0044800E000BF0123D7
:10C13400237010BD1820002000000000F4F8030054
:10C1440008B5084B002B03D00748084900E000BF9E
:10C1540007480368002B00D108BD064B002BFBD019
:10C164009847F9E700000000F4F803001C200020C1
:10C17400182000200000000070B50D4E0D4D002465
:10C18400AD1BAD1005D0A300F35801349847A54268
:10C19400F9D1FFF7B5FF084E084D0024AD1BAD10D3
:10C1A40005D0A300F35801349847A542F9D170BDD6
:10C1B4000020002000200020002000200420002077
:10C1C40070B583073FD0541E002A3BD0CEB2031C67
:10C1D400032503E0621E002C34D0141C01335A1EC4
:10C1E40016702B42F6D1032C24D9FF250D402A02C8
:10C1F40015432A0415430F2C11D9261C103E360969
:10C20400013636011A1C9B19156055609560D5607E
:10C2140010329342F8D10F221440032C0AD9261F5E
:10C22400B6080136B6001A1C9B1920C29342FCD1F1
:10C2340003221440002C05D0C9B21C191970013313
:10C24400A342FBD170BD141C031CCCE7BFF34F8F7A
:10C25400024A034BDA60BFF34F8FFEE70400FA058E
:10C2640000ED00E00D4B30B51A6814235843845890
:10C274000022012393401C420BD0A0219300C90546
:10C284005B18E021C9005D580548284058505858AB
:10C2940058500132202AECD130BDC0463C20002049
:10C2A400FFFFFCFFF0B500240123A3401A1C194230
:10C2B40017D00368134203D113430360802702E0BD
:10C2C400C02793430360A022A300D2059B18E02259
:10C2D400D2009D58054EBF022E409E509D583D43AE
:10C2E4009D500134202CDFD1F0BDC046FFFFFCFF80
:10C2F400F7B5A223A022DB00D205D6580023BE2224
:10C304001F1C204952008B501F4B1B78BB4237D94E
:10C314001E4B1F491A680123BB40096819422CD0DF
:10C3240014247C431419E368256873409D43231C3B
:10C334000C33181C291C0093FFF7B4FFA223A0227E
:10C34400DB00D205D35873400BD01E43E368226848
:10C3540073409A430098111C0192FFF7A3FF019BBD
:10C364001D43A1686068B1430B1C304003431D4268
:10C3740003D028402940236998477B1CDFB2C3E7D8
:10C38400F7BDC04600600040342000203C2000205F
:10C394003820002038B50723002927D003240C4077
:10C3A40024D1134B1960134B1870134B1C70134B8F
:10C3B4001C6014234343081C1A1C211CFFF700FFB4
:10C3C4000121C223C1200E4A49429B00D1500D4A8B
:10C3D400893B4131FF3BD150800015580A4B2B401B
:10C3E4008025ED032B431350231C1160181C38BD0A
:10C3F4003C2000203520002034200020382000205C
:10C404000060004000E100E0FFFF00FFF8B5114CC0
:10C4140027680824002F1AD0013C002B17D00E4C9B
:10C424000E4E24783578A4460424AC450FD9103434
:10C434006C433C190F1C1743236127606160A260A1
:10C444006B1C0570281C33700024FFF70BFF201CA5
:10C45400F8BDC0463C2000203520002034200020B8
:10C46400254BF0B519680823002942D0234B1A78CC
:10C47400072382423DD90024214A7633FF33D45026
:10C48400A223A0241F4DDB002E68E405E458002EEF
:10C4940004D18027C1233F069B00D7500122131CDF
:10C4A400834033432B601423584300230818056842
:10C4B400C36001229A40154217D0144204D1C168C6
:10C4C4000A43C260802200E0C022A0219202944666
:10C4D400C9059A005218E021C90057580A4E37403E
:10C4E400575067465658374357500133202BE0D1F5
:10C4F4000023181CF0BDC0463C200020342000203E
:10C504000060004038200020FFFFFCFF0F4B10B5F7
:10C514001A680823002A16D00D4B1A780723824282
:10C5240011D9041CFFF79EFE0120A040094A13689C
:10C534008343136006D18020C2220749000692007B
:10C54400885000E00023181C10BDC0463C20002089
:10C554003420002038200020006000400B4B30B510
:10C564001C680823002C0FD0094B1A780723824239
:10C574000AD9A223A022DB00D205D55814225043A5
:10C5840003592B400B600023181C30BD3C200020B5
:10C59400342000202EDF70472FDF704710B50324AE
:10C5A4000723144010D1094B1A604B1CDB009BB2CB
:10C5B400D218074B1A60074B1C70074B1C70074BB3
:10C5C4001880074B1980231C181C10BD4020002024
:10C5D400442000204B2000204A2000204820002036
:10C5E4004C200020F0B5474B87B002921A88019086
:10C5F4000E1C039309208A4200D281E004ABDF1DA4
:10C6040000233B70404B04255B68DB05DB0D1ED02B
:10C61400103BD9B24AB2002A0BDA0F220A40083A78
:10C624003A4B92089200D21803230B405268DB0065
:10C6340007E092083649C0329200525803210B4059
:10C644008B40DA40D3B29B09DDB2012B0DD0381CEC
:10C65400FFF7A0FF022801D172B607E0002805D039
:10C6640000210A1CFFF7F2FD00E01D1C294B2A4A99
:10C674001B781288DBB20021934201D20133D9B274
:10C68400264B1B7899420CD0224900200C780B7859
:10C69400DBB2934201D20133D8B20870012D03D129
:10C6A40012E0012D2BD01E4C62B63878FFF774FFD0
:10C6B4000223021C9A4303D000210A1CFFF7C6FD83
:10C6C400174B04209C421BD0164BE5001B685D19D8
:10C6D400029B2B60019B002B0ED0002E0CD0039BE1
:10C6E40001991888104B44431868321C001903F050
:10C6F400BBF8AE80002003E00020A88000E0042006
:10C7040007B0F0BD4820002000ED00E018ED00E087
:10C7140000E100E04B2000204C2000204A200020B3
:10C72400FFFF0000402000204420002010B5104BE3
:10C7340010491A780B789A4219D00F480B780A7866
:10C744000488D2B2DBB20020944201D90132D0B2C3
:10C754000A4A087010880A4A58431268DB00101805
:10C76400084A1268D31899881B689847DFE710BDF8
:10C774004B2000204A2000204C200020482000208C
:10C78400442000204020002010B5437882780133F3
:10C794009A1A041C501E82415242134022780020EF
:10C7A400934205D00B601823607843436068C01837
:10C7B40010BD0000154B02205968C905C90D24D0CD
:10C7C4001039CBB25AB2002A0BDA0F221A40083AB7
:10C7D400C24082400E49521803210B4052688B40DC
:10C7E40007E092080B4BC0329200D25803230B404F
:10C7F400DB00DA40D3B29B09DBB20020012B04D06A
:10C80400033B5A425A410230801A704700ED00E05F
:10C8140018ED00E000E100E02F23C046C046C0460A
:10C82400C046C046C046C046C046C046C046C046D4
:10C83400C046C046C046013B002BEED17047000005
:10C84400802238B50B4B9202DA678023D22201256D
:10C85400094C5B029200A350403AA3506560FFF775
:10C86400DBFFA5600024054B1C60FFF7D5FF044BDC
:10C874001C7038BD04E100E000100140502000208D
:10C884007820002070B50024224B5C649C64DC6436
:10C894001C655C609C60204B1E68731C39D01F4A69
:10C8A4001F4BD3581F4A15685D1B2D022D0A2423E4
:10C8B4001D4A73431268D3185A68954215D3AD1AAA
:10C8C400A4181A4A1E6A1268002A09D09869D969FC
:10C8D4009047002807D000210A1CFFF7B7FC02E0AC
:10C8E4009A69D8699047731CE1D1114B114A1978A0
:10C8F40013788B4205D10133DBB2022B00D1002324
:10C90400137013780C4A9B009C5080220B4B5203EB
:10C914005A6070BDFC1001406820002000100140E6
:10C92400040500005020002058200020542000203E
:10C93400642000206520002070200020FCE100E03D
:10C94400F0B5C249C24A0B68C2488BB00393007861
:10C954001378984211D00133DBB2022B00D10023AB
:10C9640013701378BC4A9B009F58039BFB181B024F
:10C974001B0A0B600123049301E000270497B74BC3
:10C984001B680593B64B1B780193B64B019A1B6841
:10C9940002920993B44B1B680093AC4B1B68089339
:10C9A400B24B1B780793059B029A013AD2B20292CA
:10C9B400FF2A68D0029AD500099A551929786A780D
:10C9C4008A42F1D018224A43AC7801316868C9B26E
:10C9D400641A8218601E844110786442214002283F
:10C9E40003D01A1C03284CD141E024205268504340
:10C9F4009446009A8018027D0692069C1A1C002C0C
:10CA04003FD01E1C1C1C721C08D0664508D0242272
:10CA14007243009C1219341C166AF4E71A1C23E0B2
:10CA24001A1CB4420DD124225343009A9B181A6A4B
:10CA3400531C06D101268E4B9E60069B0793002350
:10CA440008934368066A9C4624235C43009BE418CD
:10CA54002662741C08D024237343009C1B195E684F
:10CA64006446B44664445C600023037509E0531CC7
:10CA740007D024235A43009BD21800231375126A4B
:10CA8400F5E7131C9BE7754A089913606F4A116018
:10CA94006946764A097F1170049A002A09D1059AD9
:10CAA4009B1A5A1E9341DBB2029301235B429C46BC
:10CAB4002BE06D4A002015680122524294465A1C0C
:10CAC4001FD024225A43AA1851688F4205D26348C2
:10CAD400C91B03605160012316E07F1A401800212E
:10CAE400146951601175166A8C4208D00399D46098
:10CAF40041180902090A916061469C461162331C7F
:10CB0400DDE7564A136002330293544B1B680393C8
:10CB1400544B1B680693544B1B6800934B4B1B6888
:10CB24000593524B1B780793039B019A013AD2B2A7
:10CB34000192FF2A00D19FE0019A0699D2008A1837
:10CB44006146013108D0604624214143009864467F
:10CB54004118086A844628E0117850788842E4D065
:10CB6400182048435468013120189478C9B21170D0
:10CB74008C4201D100211170017844681D1C0129E7
:10CB840061D123316143009D69180E7D1D1C002E67
:10CB940059D185688D60C568CD6005690D614069AE
:10CBA400C8610798002800D08E608868059D314FC1
:10CBB400451B2D022D0ACE68BD4202D8AD194D6029
:10CBC4000AE0059D281A0002000A864202D9361A94
:10CBD4004E6001E00020486000208860C860013099
:10CBE4000875023808622530061C66430099251C26
:10CBF4008E19591C27D05843009D71682818456820
:10CC0400A94204D8691A4160251C33621BE01D1C2B
:10CC1400049324206843009F38184768B94206D912
:10CC2400006AC91B0495471C05D0051CF1E77F1A4F
:10CC34004760281C049D716024214D430099306293
:10CC44004D192C621D1C2B1C7AE7C0465020002075
:10CC5400642000206520002070200020682000202F
:10CC64005C20002060200020582000206C20002040
:10CC740000100140FEFF7F002B4A1360039A934289
:10CC840002D1029A002A49D05A1C45D0274A284C7E
:10CC9400116824225343CB185B68264A0093264B21
:10CCA400A5581B68254E0193EB1A1B021B0A03337C
:10CCB400029333780392002B12D18023C13A5B0292
:10CCC400FF3AA350403AA350C021802201271C4BB5
:10CCD400920249005A501A602760FFF79DFD377091
:10CCE400029B009A934200D2131C019A9B18A8221B
:10CCF4001B021B0AD200A350039AA258521B120211
:10CD0400120A5D1B2D0203322D0AAA4206D9802283
:10CD14000C4B92025A6001E0FFF792FD00220A4B8D
:10CD24001A700BB0F0BDC0466820002058200020C7
:10CD3400001001400405000050200020782000204D
:10CD440000E100E0FCE100E06C200020F8B51E1CCE
:10CD5400051C0F1C141C0720B3074FD1002E4DD007
:10CD6400FFF76EFD2421264B069A1A60254B1F708F
:10CD74004F43254BF1191E600A1C331C994204D001
:10CD84000020187018752433F8E703201F4B18701F
:10CD94001F4B1960182318310E1C63430020516087
:10CDA4001070507094700832C918B242F6D1012242
:10CDB400184B52421A60184B80211870174BC52427
:10CDC4001870C023FF26164A49035B00D150A40003
:10CDD4001359B3433F3E33431351A1231160114907
:10CDE400DB00CD50043C15590F4B2B40C0252D02C0
:10CDF4002B4313510D4BCA580D4B1A60F8BDC04656
:10CE04005420002066200020582000205C200020B0
:10CE1400602000206820002064200020652000207D
:10CE240000E100E000100140FF00FFFF04050000E6
:10CE340050200020114BF0B51C68071C0820002C62
:10CE44001AD00138002A17D0002F15D000250C4B1A
:10CE5400187885420FDA261C2434231C243B1B78C3
:10CE6400002B06D1012071703070B261181C3D6036
:10CE740002E00135EDE70420F0BDC0465820002053
:10CE840066200020F0B51F4B061C1C6885B00820E6
:10CE9400002C34D01C4B01381B789E422FD204291D
:10CEA4002DD924237343E3181C780130012C26D197
:10CEB4005B780027012B00D10F1C01920D1CFFF79A
:10CEC40079FC124BC0001C6803A92418201CFFF72E
:10CED4005BFC031C0420002B11D001220C491A70A6
:10CEE4000C4A5E608A5800209A60019ADD605A619B
:10CEF40080221F61039B52036370074B5A6005B085
:10CF0400F0BDC0465820002066200020602000208C
:10CF14000010014004050000FCE100E0154B37B5AA
:10CF24001A680823002A22D0134B19780723884251
:10CF34001DD21D3343439A5C0823012A17D1051CD3
:10CF4400FFF738FC0D4BC0001C6801A92418201CF5
:10CF5400FFF71AFC0423002809D08022023B037047
:10CF6400019B45606370064B52035A600023181CF2
:10CF74003EBDC046582000206620002060200020CE
:10CF8400FCE100E000220121044B1A70044BD9603B
:10CF94005960A021C9005A507047C0468020002023
:10CFA40000200040064A08B51378DBB2012B04D0F8
:10CFB400022B04D10323137001E0FFF7E3FF08BD44
:10CFC40080200020084A1378DBB2002B03D0032B07
:10CFD40009D1022306E0A02304200449DB00C85041
:10CFE40001230B6013707047802000200020004054
:10CFF40073B50E4E041C33680D1C0340194209D04E
:10D004000B4B01A91878FFF7A9FA00280CD1019B52
:10D014001C409D4333682B4202D0FFF7D3FF03E04B
:10D02400234201D0FFF7BEFF73BDC0468420002019
:10D0340088200020012307B5054A6846D360054AC5
:10D0440013706A4602331370034B1B68984707BD7D
:10D0540000200040802000207C20002013B5264CB6
:10D06400264BE268002A14D0C12292009958042267
:10D0740011420ED00021E160A321C9005B58204970
:10D08400DBB20B8069460B711E4B0A701B68684645
:10D094009847236A002B16D0C123184A9B00D35803
:10D0A4001B0610D50022144B1A62174B1B78DBB2F7
:10D0B400934208D0022B04D9032B04D1FFF762FF5B
:10D0C40001E0FFF7B7FFA26A0C4B002A13D0C1227C
:10D0D40092009A5892050ED50021074A684691623B
:10D0E4009021C9005A585A50022369460B70054BC7
:10D0F40001921B68984713BDFC20004000200040AB
:10D104000A2000207C20002080200020F0B585B07B
:10D1140001930023051C6F48A02103706E4BC905C1
:10D124001A6001226D4B52421A8001236A786C4CBA
:10D134009340A122D2008B5003226B78061CC1338A
:10D14400FF339B005A502B780932C133FF339B00C5
:10D154005A506A78634BE2502A78634BE250AA68CB
:10D16400624BE2506A79624B002A00D00E22E250F0
:10D1740028790A9A1788022852D1AA780130C13234
:10D18400FF32920088500122161CA8788640301C79
:10D19400584E88510126A2207642C0002650AE780F
:10D1A40008382650161CE0581043E050EB785248DB
:10D1B4009E40C1330660FF3350489B00C850EB7853
:10D1C400002F0FD19A404E4F111C381C4D4BFFF7C6
:10D1D4001DF900287BD1FF223B781B0213430A9AD6
:10D1E400138005E00720FE2F71D9454B3F0A1F70BD
:10D1F400434E03A93078FFF7B1F9002867D130789E
:10D20400FFF72EF9002862D10123EA789340039AAC
:10D214001A4202D1FFF7D6FE3DE0FFF7C3FE3AE023
:10D22400394A01281AD1002F05D1384F3878411CCA
:10D2340039700A990880A0210420C9006050002197
:10D24400D16011620122E1581143E150A223E9782F
:10D25400DB00E150A978083BE15019E0002F05D12B
:10D264002A4D0A992878471C2F700880A021042091
:10D27400C90060500021D16011620122E15891433C
:10D28400E1500123A1215B42C9006350083163507E
:10D29400A260226032700122C22352429B00E250FB
:10D2A400A122043B9200E250019A0424C02591017A
:10D2B400FF221748853BFF3BC450AD004359114042
:10D2C400144A090413400B4343510460002005B081
:10D2D400F0BDC046802000207C2000200A200020D1
:10D2E400002000400C050000140500002405000087
:10D2F4006C05000004050000842000200C000300DD
:10D3040088200020F5CF0300FC20004008200020E6
:10D3140000E100E0FFFF00FF0C4B10B51A78042178
:10D32400012A10D10A4A002110701A78D2B2012AB7
:10D3340009D11C780749022C00D08A60064A88501B
:10D34400022200211A70081C10BDC0468020002053
:10D3540079200020002000401C05000010B5FE28A4
:10D3640003D8FFF70FFE00200AE0064C030A2278D8
:10D3740007209A4204D1FFF705FE2078FFF7C6F88C
:10D3840010BDC0468820002040DF704711DF704781
:10D3940013DF704708B5FFF7F7FF002803D000211B
:10D3A4000A1CFEF753FFFFF7C1F9034B1B78023B3E
:10D3B400022BF0D808BDC0468920002008B5074BD1
:10D3C4001878012802D1022900D11970002A04D04A
:10D3D4000021101C0A1CFEF739FF08BD892000201B
:10D3E40010B50C4C1C21201C01F070FE002803D049
:10D3F40000210A1CFEF72AFF201C07491C220023D7
:10D4040001F0DCFD002803D000210A1CFEF71EFFFA
:10D4140010BDC0468C20002094200020036807B56E
:10D42400013301D1002017E001A800F067F9019B46
:10D434001A78012AF6D100225988914206D0C021D7
:10D4440089018868996800F05FF9021C019B58887B
:10D45400801A42425041C0B20EBD0000844684B0DE
:10D46400F0B585B01D1C0D936346C4B20A901B0C25
:10D4740003A80F1C0B91161C0C92019300F03EF9AB
:10D48400002C09D16A463B4B9288FF215A80012225
:10D494009D601A70197140E0012C14D16A46354B15
:10D4A4009288DF605A80F21952199A60A5221A7084
:10D4B4005A321A710E9A1E615D619A612E4B1C706C
:10D4C400FFF78EFF51E0032C0ED1039A294B1178FC
:10D4D40019705188926859809A60AA22DF601A7183
:10D4E4001E615D61A93A18E0022C19D1039A214BFF
:10D4F4001178A52905D100225A809A60FF321A704A
:10D5040004E019705188926859809A60FF221A7158
:10D514000022DA601A615A610132174B1A70CFE7A0
:10D52400052C09D100F0F6FD002803D000210A1CC7
:10D53400FEF78CFE032216E0042C09D100220D4BC9
:10D544005A809A60FF321A70039A12791A71B7E7F7
:10D55400062C0AD100F0DEFD002803D000210A1CAD
:10D56400FEF774FE0422044B1A7005B0F0BC08BC2C
:10D5740004B0184794200020892000201FB5084BD0
:10D5840001931C2302931B3B039301F05BFC0028D3
:10D5940003D101A8034901F093FC05B000BDC046C6
:10D5A400C1D303008C20002010B500F01FFA00281E
:10D5B40005D100F077FD041CFFF7ECFE201C10BD24
:10D5C40010B5FFF7E3FE002803D000210A1CFEF784
:10D5D4003DFE0D4B1968002301229A40114201D0EF
:10D5E4000A48C2670133202BF6D1C024A401A068E5
:10D5F400FFF7CEFE002803D000210A1CFEF726FE0A
:10D60400A06800F073F810BD00E100E004E100E060
:10D6140007B501A800F072F8019B01201A78A52A29
:10D6240004D01879AA3843425841C0B20EBD10B58F
:10D6340000F0FEFB00280BD0642001F0EFF900F0AD
:10D644006DFB002809D000210A1CFEF7FFFD04E051
:10D6540000F0CCFB021EEFD111E000F0E9FB002842
:10D6640003D000210A1CFEF7F1FD00F0A1FB00220B
:10D67400041E944203D0111CFEF7E8FD221C101C6A
:10D6840010BD10B588B003AC201C00211422FEF795
:10D6940097FD0223237000230434009303980ECCD7
:10D6A400FFF7DCFEFFF776FE002008B010BD000097
:10D6B40030B5051C89B001AC201C0B491C22002389
:10D6C40001F0BAFC23782B7063886B80A368AB608D
:10D6D40023792B71E368EB6023692B6163696B61C8
:10D6E400A369AB6109B030BD8C200020026882F3CD
:10D6F400088843681847C0467047C046014B03601A
:10D704007047C04600FC030030B5002A01D01388DE
:10D7140000E00B4B051C41188D420FD02C785BBAEE
:10D724009BB263401A1CDBB21B09534018034340ED
:10D734009BB2DAB2520153400135EDE7181C30BDFB
:10D74400FFFF000018DF70477047000070B5141C1D
:10D754001D1C022902D004290AD019E0104B1B78A1
:10D76400052B15D10F4B04201B68002B0DD10FE0A6
:10D774000B4E3378022B0BD10B4B5B68984703207D
:10D78400084B30701B68002B02D0211C2A1C9847C0
:10D79400002C04D00021201C0A1CFEF757FD70BD8C
:10D7A400B8200020B0200020E0200020012200B595
:10D7B400074B89B01A7003AB04321A70079A0398A6
:10D7C40000920499059A069BFFF748FE09B000BD34
:10D7D400C4200020032300B589B003A80370074BBD
:10D7E4001B884380064B079859689A68DB68009049
:10D7F4000398FFF733FE002009B000BDB6200020D7
:10D80400D0200020012200B589B003AB1A70084A69
:10D8140012885A80C0239B019B6803980093054B90
:10D8240059689A68DB68FFF719FE002009B000BD4B
:10D83400B6200020D020002010B588B003AC201CF6
:10D8440000211422FEF7BCFC0423237000230434BB
:10D85400009303980ECCFFF701FE08B010BD000042
:10D86400022208B50B480C4B18600C4B1A70C023ED
:10D874009B019968F0239B02591A094B4908C9185E
:10D8840001F09AFC002803D000210A1CFEF7DEFCFC
:10D8940008BDC046C820002030210020B820002048
:10D8A40000FCFFFF022208B50748084B1860084B2C
:10D8B4001A70084B196801F07FFC002803D000217E
:10D8C4000A1CFEF7C3FC08BDBC2000203021002048
:10D8D400B82000203821002070B5154C154D88B0B3
:10D8E400201CE96801F068FC002803D000210A1C10
:10D8F400FEF7ACFC104B201C5968EA68002301F0C9
:10D9040033FC061E11D103AC311C1422201CFEF77B
:10D9140057FC0A4B22691B886380EB680398E36019
:10D9240000926168A268FFF799FD301C08B070BDD1
:10D93400BC200020D0200020C8200020B6200020D9
:10D9440038B50F4B08221D78002D17D10D4C2068D7
:10D95400FFF7E4FA002803D0291C2A1CFEF776FC02
:10D96400F021206800228903FFF78CFA0022041EAC
:10D97400944203D0111CFEF769FC221C101C38BD14
:10D98400C42000202C210020F0B51F1C032385B0E7
:10D99400061C0190940868460D1C009302910394A0
:10D9A400FFF7D0FE00281ED080235B019D4212D8D1
:10D9B400012368460093019602950394FFF7C2FE83
:10D9C400002810D10323684600930196029503941E
:10D9D400FFF7B8FE07E0F01BE91B3A1C3B1CFFF7FE
:10D9E400D3FF0028E4D005B0F0BD0000F0B5002757
:10D9F40085B000210C2201A8FEF7E2FB1E4B1F4D4F
:10DA040001931F4B01A81F701E4B291C1F8001F09E
:10DA14008DFB1D4E041EBC4201D037702AE0C0238A
:10DA24001A499B010A1C9B686B6081CD81C2F0225C
:10DA34009202D21A5208164DD3184B60281C211C8E
:10DA4400144AFFF7F7F9002803D0211C221CFEF723
:10DA5400FDFBF021286889030022FFF713FA002850
:10DA640003D000210A1CFEF7F1FB00200A4B1860CA
:10DA74000123337005B0F0BD51D70300BC20002052
:10DA8400B4200020B6200020B8200020C8200020A8
:10DA94002C210020B1D7030034210020014B186051
:10DAA4007047C046B020002038B5294B4268191C85
:10DAB40031CA31C112680A6019784A0702D50624AE
:10DAC4008A0743D103255A6806242A423ED198681E
:10DAD40028423BD1DB682B4238D18218D318F0227C
:10DAE4001C4D24192B60920190422FD8C022920120
:10DAF400C8070CD59168EF229202521A934225D896
:10DB0400154B164A1A60164A5A60164A10E0906875
:10DB1400F0229202121A5208934217D80E4B124A5C
:10DB24001A60124A5A608A0701D5114A00E0114A64
:10DB34009A60114B08241B78012B07D1FFF700FFD3
:10DB4400041E03D1044B28681B689847201C38BD69
:10DB5400D020002038210020E0200020A9D8030094
:10DB64003DD8030009D8030065D803004DD703004E
:10DB7400D9D70300DDD80300B8200020F8B5041C71
:10DB84000E20002C2ED0A36802309B072AD1164BFE
:10DB94001B78052B25D16368144D154F9E002B6807
:10DBA4003A68F318934204D901235B422B6004388A
:10DBB40018E0FFF7C5FE002814D10E4BA1681868C1
:10DBC400321C2B6801F0D0FA00280BD12B680930E5
:10DBD400F6183B682E60F61A731E9E41764230405A
:10DBE40000E00820F8BDC046B82000203421002001
:10DBF40038210020302100200C4B70B51C68002C0B
:10DC040010D10B4E3378042B0CD10A4D0A482978D5
:10DC140000F040F9002802D10523337003E02C7092
:10DC2400041C00E00824201C70BDC04634210020E0
:10DC3400B8200020B4200020EC200020F8B5134BBD
:10DC44001A78032A02D0042A02D018E004221A7097
:10DC54000F4B1C68002C12D1051CFFF771FE002825
:10DC64000FD16B680B4E9A0033789F18402F0AD857
:10DC74000948A968C01801F0F7FD377004E00824CA
:10DC840002E0041C00E00924201CF8BDB820002098
:10DC940034210020B4200020EC20002038B50E4CA4
:10DCA40008202378052B16D10C4D0D4B2A681B68D0
:10DCB400082093420FD106232370FFF741FE00286A
:10DCC40009D1084B29681B68586800F02BF9002813
:10DCD40001D10723237038BDB8200020382100204B
:10DCE400342100203021002008B5094B08201B787E
:10DCF400072B0CD1074B1868FFF710F9002803D045
:10DD040000210A1CFEF7A2FA034B9B68984708BD42
:10DD1400B82000202C210020E0200020F0B58DB098
:10DD240005A8FFF7C5FC089C002C3CD080230B9D64
:10DD34005B01E318AB422AD91C4BEE18C0239B01AC
:10DD44009B687608A34209D3802372005B01D11833
:10DD54005019331CA21AFFF717FE23E08023012772
:10DD64005B01F31801A80197029303930497FFF74B
:10DD7400E9FC002816D1802301A85B0101970293D6
:10DD840003930497FFF7DEFC00280BD1DCE70123A3
:10DD940001938023A4085B0101A8029503930494D2
:10DDA400FFF7D0FC041C201C0DB0F0BD00F0FFFFF9
:10DDB40000B58DB005A8FFF77BFC0998002813D0A7
:10DDC400089A0B9B002A06D1C0239B019A68F02372
:10DDD4009B029B1A5B08D31800228008039001A8B9
:10DDE40001920293FFF7AEFC0DB000BD00B58DB0FB
:10DDF40005A8FFF75DFC0998002816D0089A0B9B2C
:10DE0400002A06D1C0239B019A68F0239B029B1A27
:10DE14005B08D31803220192F02280089202049036
:10DE240001A802920393FFF78DFC0DB000BD000022
:10DE340010B58CB005A8FFF73BFC0898002824D047
:10DE440080230B9C5B01C318A34211D9C0239B01FF
:10DE54009B68834218D380210D4B4901E3185B086A
:10DE64005A0014195118821A201CFFF78DFD0CE07A
:10DE740003230193802380085B01049001A802938B
:10DE84000394FFF75FFC00E00E200CB010BDC04609
:10DE940000F0FFFF38B50B2901D8092037E00389CA
:10DEA4001B4C04335B00C3180233C21A5218D2B29B
:10DEB4002270012AF1D941188B42EED8191C041C96
:10DEC400144801F0D1FC144B144A1988914203D030
:10DED40025880B208D421AD15B88934203D0628837
:10DEE4000B209A4213D1002321898B420CD25A0071
:10DEF400A21852890A48824208D0C0208001808931
:10DF040001339042F1D101E00B2000E0002038BD44
:10DF1400462100203C21002080100010FFFF00005B
:10DF2400FEFF000008B50022FFF7EEFB021C0649C5
:10DF34004B7808781B020343D31A5A1E93410B20D3
:10DF44005B42184008BDC0463C21002073B56B46B7
:10DF54009C1C01A8211C00F03DFD002809D001985B
:10DF640000F056FD00282DD000210A1CFEF76EF9A2
:10DF740028E0019D2E78002EF1D0134B1A1C30326C
:10DF840011781A1C0329EAD00C234343D1580029E1
:10DF940014D1D650161C30363078D318228801306C
:10DFA4009208C0B2013A043530705A609D60081C72
:10DFB400064AFEF717FB002804D0D0E701300428F6
:10DFC400E2D1CCE773BDC0465C21002029E0030008
:10DFD40038B50C2358430D4A83581518A968002BEB
:10DFE40012D0141C30342378013BDBB2237000249C
:10DFF4008450AC606C60081F00F00AFDA04203D09E
:10E00400211C221CFEF722F9002038BD5C210020CF
:10E0140008B5002904D0081C00210A1CFEF716F9D3
:10E0240008BD000038B51E4C231C30331B78002B70
:10E0340034D00025206800282BD0013804281FD8AC
:10E0440001F076FB0D1E07031900201CFFF796FD57
:10E0540016E0A368201C6360FFF726FD04E0201C83
:10E06400FFF7ECFDFFF7C8FD002809D000210A1CCA
:10E07400FEF7ECF804E0FFF711FEFFF735FE0DE0C4
:10E08400E8B2FFF7A5FF002803D000210A1CFEF721
:10E09400DDF801350C34042DCCD1C4E738BDC046BD
:10E0A4005C210020174A0021131C303310B519706D
:10E0B400131D34320024191F0C605C601C600C3387
:10E0C4009342F7D11048FFF7E9FC01200F49FEF70E
:10E0D40061F9A04203D0211C221CFEF7B7F800F01E
:10E0E40007FC002803D000210A1CFEF7AFF80848FB
:10E0F40000F0E8FB002803D000210A1CFEF7A6F874
:10E10400002010BD5C21002015E003004821002000
:10E1140051DF030008B50020FFF75AFF0120FFF785
:10E1240057FF0220FFF754FF0320FFF751FF00F0D1
:10E1340027FC08BD0020064B064A1870064B1A60DF
:10E14400022298605A60D8601861586198617047DB
:10E1540064260020902100204826002000207047DB
:10E1640070B50E22002921D00024114B0C605D688B
:10E174000A3AA5421AD096260832B600B04215D8FB
:10E184009720DA6880000132DA601A69013D504351
:10E194005D601D68281808600121081C9040521811
:10E1A4000A401A61221C9D6928439861101C70BDA5
:10E1B400482600201D4BF7B59A68061C0420002A47
:10E1C40032D001215C691868A21A0A40111C9725F3
:10E1D400AD004D4345190127AE420CD18F400020BC
:10E1E4000C1C99694F409F6199699E680191596817
:10E1F4008C46311C0AE001313940A142E7D110209C
:10E20400F2E700290DD0621C01393A406546012726
:10E21400AD196D1A00953D1C95402A1C019D1542AF
:10E22400EFD0009A99605A60FEBDC046482600208F
:10E2340007490B6909685A1E01231340972292006B
:10E244005343043ACB189B18186000207047C0460B
:10E254004826002030B50E2200281BD0002919D0F2
:10E264000D4B0A3ADC68002C14D09A68013C013248
:10E274009A609722DC605C69920062431D680134F5
:10E28400AA1802609620800012580A6001221440E5
:10E2940000225C61101C30BD4826002030B50A4DB8
:10E2A40085B02A68002A0CD0084B1C68002C08D0C2
:10E2B4000023074801A90B700168036001982B60D3
:10E2C400A04705B030BDC0467C260020742600203F
:10E2D4008426002010B5DC2806D0DD280CD0C02808
:10E2E40013D1FFF7DBFF17E00D4A0E4B19681368D3
:10E2F400581C1060C02206E0094A0A4B19681368CA
:10E30400581C1060DB22CA5406E0064B044A196804
:10E3140013685C1C1460C854034A044B1A6010BD93
:10E324007C2600208426002065E303000C200020C6
:10E33400C02802D1014A024B1A60704765E303000A
:10E344000C20002008B5DB20FEF7E6FF002802D1F0
:10E35400014A024B1A6008BDE1E4030010200020CA
:10E3640010B5C02805D0DB2806D1074A074B1A6030
:10E3740009E0FFF793FF06E0054B064A19681368A6
:10E384005C1C1460C85410BDD9E203000C200020AA
:10E39400842600207C26002010B5064A064C12680C
:10E3A4002368D05CFEF7B8FF002802D1236801334C
:10E3B400236010BD802600206826002008B5C020F8
:10E3C400FEF7AAFF002806D1034B1B68002B02D1DD
:10E3D400024A034B1A6008BD682600209DE303002F
:10E3E400102000201FB5194B194C1A682168194BCD
:10E3F400914214D2184A21681268515CC02903D092
:10E404002168525CDB2A05D1144A1968914201D172
:10E41400134A1A601B6898470428E4D114E0114A8F
:10E424001A60FFF7CBFF00280ED101210E4B1970A3
:10E434000E4B1B68002B07D001AA117006492268F5
:10E4440009680198029198471FBDC0466C260020B8
:10E454006826002010200020802600209DE3030071
:10E4640049E30300C1E3030078260020742600205A
:10E474001FB50378041C032B05D1124B1B78022B08
:10E4840001D1FFF7AFFF2378042B19D10E4B196884
:10E49400002905D00D4B1A680D4B1B689A420BD30B
:10E4A4000C4B1B68002B0BD0022001AA1070074AEA
:10E4B40001981268984703E0074B20791B68984736
:10E4C4001FBDC04678260020842600207C2600201C
:10E4D40070260020742600200C20002010B50C4A61
:10E4E4000C4C12682368D35CC02B03D0DB2B0DD1FA
:10E4F400DD2000E0DC20FEF70FFF002807D12368B1
:10E50400054A01332360054B1A6000E0042010BD66
:10E5140080260020682600209DE3030010200020B0
:10E52400014B18600020704774260020F0B50B4C96
:10E5340087B02178002000290ED103A8021C084BC3
:10E54400E0CBE0C2074B084A00930323FEF7DEFD4D
:10E55400002801D10123237007B0F0BD78260020E4
:10E56400E8F803007A26002075E40300002208B5C9
:10E57400034B1A70034B1888FEF7F0FE08BDC04623
:10E58400782600207A26002010B51023002817D002
:10E594000C4B1A78012A04D00423022A10D0DB1869
:10E5A4000EE00024084A1460084A1160084A10600A
:10E5B40002221A70074B084A1A60FFF713FF231C44
:10E5C400181C10BD78260020682600206C26002028
:10E5D4008026002010200020C1E30300054B064ADA
:10E5E40018600020054B1960054B1860054B1A6034
:10E5F4007047C0468426002035E3030070260020BF
:10E604007C2600200C200020002208B5064B074879
:10E614001B680421DB00DBB203705B424270827032
:10E62400C370FFF7B1FF08BDA42600209526002083
:10E6340038B5041C304D2B78012B18D0002B02D098
:10E64400022B25D056E0002C54D12C4B1868FEF731
:10E6540065FC002803D0211C221CFDF7F7FD284B84
:10E664001B68002B46D0274A1078984742E0012CBB
:10E6740040D1254B1968254B06311868FFF784FFF4
:10E68400002803D000210A1CFDF7E0FD02230DE061
:10E69400022C1DD0032C02D0002C2BD109E01C49E4
:10E6A4000B685A1C072313400B6000232B700024B3
:10E6B400C0E7184B18491C60104B221C1868FEF761
:10E6C400E1FB002816D0211C221CFDF7BFFD11E040
:10E6D400104A1368052B09D0013313600A4B1968DB
:10E6E4000A4B06311868FFF74FFF03E00122054B80
:10E6F4001A70DAE738BDC04694260020B8260020F8
:10E704009C260020A1260020A8260020BC2600204C
:10E71400B0260020902600207F1A0000F0B585B0B6
:10E724000190C0B20C1C0291161C0392032854D809
:10E7340000F0FEFF06024F520120FFF779FFAAE026
:10E74400564D032A39D90F224B781A401ED00E2A6F
:10E7540033D1042E7CD00A78510679D551B20029E0
:10E7640076DAD318A278E1789B185A18D2B2002A24
:10E774006ED1B71E391C201CFEF7C6FFE7197B7843
:10E784003A781B021343984262D12BE00A788978C5
:10E79400D3185B18E1785B18DBB2002B0DD140492C
:10E7A400D2080968481C07210A4001408A4204D162
:10E7B4003C4A03201370FFF73BFF2C68201E48D10E
:10E7C4009620291C8000FFF7CBFC002840D00428A9
:10E7D40046D1354805213EE0032000210A1CFDF7FF
:10E7E40035FD58E007223148217803681140DCB236
:10E7F4008C421FD1013313400360FFF705FF012250
:10E804002B4B301C1A70FFF713FD002803D0002196
:10E814000A1CFDF71BFD9620291C8000FFF7A0FCB5
:10E82400002823D0042833D00020011C021CFDF74B
:10E834000DFD2DE0962128688900FFF7CFFE002802
:10E8440003D000210A1CFDF701FDFFF7DDFE22E0E5
:10E85400286896218900FFF7C1FE00281BD0BCE779
:10E86400201C211C221CFDF7F1FCB2E7962128682C
:10E874008900FFF7B3FE002803D000210A1CFDF72E
:10E88400E5FC0C4B1B68002B05D00020984702E0E8
:10E8940005480521EDE705B0F0BDC046AC260020D3
:10E8A400B0260020A126002088260020A4260020CF
:10E8B400A0260020B426002008B50220FFF7B8FEE9
:10E8C40008BD0000084B10B5041C18600748FFF78A
:10E8D40027FE002803D000210A1CFDF7B7FC002006
:10E8E400844200D10E3010BDB426002021E703007D
:10E8F40000230121174A10B51360174A1748136003
:10E90400174A1360174A1370174A1370174B184AA3
:10E914001960184B1960184B1970FEF78BFA002810
:10E9240001D0032014E0FFF705FC002810D1FFF705
:10E93400FDFD00280CD19620104C8000211CFFF70F
:10E944000FFC0028EDD1962120688900FFF746FED0
:10E9540010BDC046BC260020A8260020B8260020F2
:10E9640090260020A026002094260020A426002023
:10E97400BDE80300B0260020A1260020AC2600201C
:10E9840010B50024104B1C60104B1C60FFF7E6FB15
:10E99400A04203D0211C221CFDF758FCFFF7E6FD22
:10E9A400002803D000210A1CFDF750FC084B18680E
:10E9B400FEF7B4FA042804D10020011C021CFDF760
:10E9C40045FC002010BDC0469C260020B426002033
:10E9D400B826002037B5041C0E20002C14D00029C2
:10E9E40012D00022094B01921D780A3895420BD0AF
:10E9F4000D1C201C01A91A70FFF72CFC019B063B7F
:10EA04002B802368043323603EBDC046A02600202B
:10EA140008B50438FFF7CEFB08BD000082B00190B2
:10EA2400019B002B15D0019B013B01930A4BC0466F
:10EA3400C046C046C046C046C046C046C046C046A2
:10EA4400C046C046C046C046C046013B002BEED17E
:10EA5400E6E702B07047C046E703000021DF7047D5
:10EA640020DF704737B5021C18200C4C237858431C
:10EA7400201805690179022D02D10948056803E0CF
:10EA840014206843074D455918204343E018E31800
:10EA94009C68103000949B69A84737BDC0260020AD
:10EAA400D0270020B4270020F7B5494C1E1C23783A
:10EAB400071C002B06D1131C334301D1023300E0A1
:10EAC4000123237023780320013B052B00D97EE02A
:10EAD400181C151C0A1C00F02BFE031523503E6A5B
:10EAE40080235B055E69186919691D6989B2514300
:10EAF40080B2AAB270439208FFF7B0FF0223002845
:10EB040064D064E0081CFFF7ABFF00285FD1002D40
:10EB14001FD1002E19D13B78042B14D1072315E003
:10EB24008021490508694B69096980B289B250435B
:10EB340059432A1CFFF792FF002848D1002E04D124
:10EB44003B78042B17D0052300E004232370002016
:10EB54003DE003233AE080235B051869AB0080B2F3
:10EB6400424398187B6879699A08FFF777FF002871
:10EB74002DD13543D2D00623E8E780204005036930
:10EB840041690069AD00844698B242437B68D0185D
:10EB94006A466346D380D388401959437B68321C44
:10EBA400C9184919FFF75AFF0028C9D00FE080227D
:10EBB400520553691069116980B2584389B200F053
:10EBC400C1FDFFF74DFF002801D107232370FEBDCF
:10EBD400D9270020F7B518243D4A17787C43141927
:10EBE400261C231D009323790836F5680192042B13
:10EBF40018D0052B4BD00F20022B67D1354B7068F2
:10EC04001F68A169A268344BBF022818D21BC91916
:10EC1400C0199A4201D8920801E080225200FFF7FD
:10EC24001DFF4EE01423B268802653432B4976051A
:10EC3400CB189968D8685B68AB4204D10B1C43437A
:10EC4400A1688B4201D0022A0AD13169281C89B2F9
:10EC540000F078FD1F4B1B68C018FFF701FF30E080
:10EC64003169281C89B200F06DFD32693469431C96
:10EC7400A4B25C4318235F4392B2019B4243DF1961
:10EC8400BB68AA1AEB18011C9208E31A15E0802746
:10EC94007F053969281C89B200F054FD011C3A69CA
:10ECA4007368386992B2ED184A434B1C86B25E43CE
:10ECB400A368AA1AEB189208F31A9B080098FFF7A6
:10ECC400F3FE002802D10123019A9370FEBDC046D1
:10ECD400C0260020DC270020FF030000B42700200A
:10ECE400F8B5144D061C6F7804200A2F20D02C7818
:10ECF4003C19E4B2092C01D90A3CE4B2182044437B
:10ED04002C19201C0830A261021C26710832C0C9CB
:10ED1400C0C2A360069B4360AB78002B01D00020E7
:10ED240003E0FFF757FF1128F9D06B7801336B70BC
:10ED3400F8BDC046C026002008B5064B5B78002B02
:10ED440001D1002005E0FFF745FF0028F9D0112884
:10ED5400F7D008BDC0260020F7B5364B9A781C1CA6
:10ED6400002A65D000259D70334B1A781F1C082A91
:10ED740004D1022800D0314B1D7043E0022803D097
:10ED8400032855D10D2041E0182120782C4E414311
:10ED9400336861180133336008790196022804D17D
:10EDA4008A689B02934210D22CE0052839D00428AB
:10EDB40028D18968D01F464246418C46301C9B02AC
:10EDC400291C634525D2002828D00025281C3D7025
:10EDD400FFF748FE1823012022785343E3181D71DE
:10EDE4009D6018615D619D61DD60019B1D606378BC
:10EDF400013B63701318DBB2092B01D8237001E0C7
:10EE0400093A2270FFF798FF002811D0FFF72AFE75
:10EE14000EE00121002AD6D0291CD4E70029F1D024
:10EE2400D3E7073A51425141281C0029CBD0CCE703
:10EE3400F7BDC046C0260020D9270020D8270020CF
:10EE4400DC2700200023164A10B51360154A1370FE
:10EE5400154A137053709370131DF432002001246B
:10EE640018705860DC6018615861986018339342D8
:10EE7400F4D10E4B186080235B055A691B6999B263
:10EE8400531E4B430A4A13600A4B1860986018617A
:10EE9400D860094B18609880084B1C7010BDC046A0
:10EEA400DC270020D9270020C0260020C827002006
:10EEB400CC270020B4270020D0270020D82700200A
:10EEC400F0B53A4B85B01B780824002B6AD0063481
:10EED400002867D0002965D003680393002B61D014
:10EEE40080235B051A69466892B2073C964259D85A
:10EEF4000F2E57D982680192002A53D02C4A5869A0
:10EF04001268019D02921A69754392B24243029FAC
:10EF1400EF19974246D81A690F1C92B2954206D946
:10EF24001869311C80B200F093FC00293AD1032403
:10EF3400344034D11F4B1B68012B32D01421029A68
:10EF440059437A601C4A3B60029F50184760039FF4
:10EF540086608F500199171CC160154801688C4662
:10EF6400211C802676053269013192B289B295421C
:10EF740003D9326992B2AD1A00E00025326992B227
:10EF84009444326992B29542EBD2624602601422F2
:10EF94005A43BA181161074A0133136002E0072487
:10EFA40000E00424201C05B0F0BDC046D827002092
:10EFB400CC270020C8270020B4270020F0B5041C6B
:10EFC4001B4885B005780820002D2ED00630002976
:10EFD4002BD0002C29D025680738002D25D1154DBC
:10EFE4002E68002E21D06668EF680396AE686D68BF
:10EFF4007743BC46039F6544AF4216D2002A14D01F
:10F00400B24212D8D518B5420FD80D1C03261D43A1
:10F014000930354209D1374207D1181C131C00901E
:10F024000A1C0220211CFFF75BFE05B0F0BDC046A0
:10F03400D8270020B4270020F0B5161C214A85B03B
:10F04400127802930824002A39D00634002936D0D5
:10F05400002834D00B68073C002B30D11A4F3A6893
:10F06400002A2CD0BD68FB684A686B439C467B68C9
:10F074009C44624523D2002E21D0AE421FD8029B6D
:10F08400F318AB421BD8041C0325029B1C432C40E1
:10F0940014D1154012D103960E1C9918039A0290AC
:10F0A40000F0E2FB14233268301C5343039A03211B
:10F0B4000092FF582A1C029BB84700E01024201C31
:10F0C40005B0F0BDD8270020B4270020154BF7B5B4
:10F0D4001B78041C0820002B23D00630002C20D0E1
:10F0E40023680738002B1CD10F4B1A68002A18D04C
:10F0F4005F689E68DB6862687343DB199A4210D2CA
:10F10400093093070DD1D01B0D1C311C00F0A0FB5E
:10F1140007200A1E05D100910338211C2B1CFFF780
:10F12400DFFDFEBDD8270020B42700200C4B10B50E
:10F134001A780823002A10D0063300280DD000299D
:10F144000BD00468002C08D006480A3B0268002A49
:10F1540003D1023B0B60131C0460181C10BDC04695
:10F16400D8270020D027002073B5114C2578082417
:10F17400002D1AD00634002917D0002815D00568B0
:10F18400073C022D11D10B4E3668002E0DD00E1CFB
:10F194001E430934B60708D11C1C131C00940A1C16
:10F1A400011C281CFFF79CFD041C201C76BDC046D6
:10F1B400D8270020D02700200C4B07B51B78021C51
:10F1C4000820002B11D00630002A0ED0136807380F
:10F1D400022B0AD1064B1B68002B06D00B1C111CFA
:10F1E400002203380092FFF77BFD0EBDD8270020D4
:10F1F400D027002026DF704751DF704710DF7047AB
:10F2040061DF704708B5081C111C00F06FF908BDD8
:10F21400F0B5264B85B01B78002B45D0244B254EEA
:10F224001D6834686A42554162425441EDB2E4B209
:10F234000193002D36D103A8FFF7DEFF05280CD07B
:10F24400002804D0291C2A1CFDF700F806E0019BC5
:10F2540003981B680093984700E00125002C1ED1F9
:10F26400154B03A91B8801240B80144B1B68181C25
:10F274000093FFF7C5FF071E052F0BD0002805D00C
:10F2840000210A1CFCF7E2FF002403E00098336825
:10F2940098473C1C002DCCD0002CCAD004E0002D93
:10F2A40002D1C6E7002CDBD005B0F0BDE02700207A
:10F2B400E8270020EC270020E2270020E427002094
:10F2C40038B5041C0720002913D08D0711D1094833
:10F2D40001600949201C0A80084A09491360FFF7A4
:10F2E4008DFF002805D10122064B16301A70FFF756
:10F2F40081FF38BDE4270020E2270020F02700200A
:10F3040009F20300E02700200E23002802D0024B5C
:10F3140018600023181C7047E827002008B5074B25
:10F324001B68002B07D09847002806D000210A1C30
:10F33400FCF78CFF01E0FFF76BFF08BDF02700200E
:10F34400FEE7000070B5002822D10C1C09680E23CA
:10F3540000291BD0104DA94210D06B1A2B2B09D8B1
:10F364000B1C4A1E2C33934208D01E78681AC654CC
:10F37400013BF8E7281C2C2200F076FA281C2C21EB
:10F384000022FEF7C1F9054B18800023236001E039
:10F3940001230B6070BDC046F42700202028002004
:10F3A4000748704502D1EFF3098101E0EFF30881CA
:10F3B400886902380078034A1047C0467047000045
:10F3C400FDFFFFFF49F3030060DF704713DF704761
:10F3D40018DF704710B5041C082904D00020011C54
:10F3E400021CFCF733FF23686068984710BD0000D7
:10F3F40007B5044A0090019168460821FDF7F2F828
:10F404000EBDC046D9F30300002008B5011C024A12
:10F41400FDF7E8F808BDC046B9F4030010B586B09E
:10F42400041C002102A81022FCF7CAFE0223029346
:10F43400002C08D002A8FFF7CBFF002803D000213E
:10F444000A1CFCF703FFF0208002FFF7BFFF00282F
:10F4540003D000210A1CFCF7F9FE082010495022B1
:10F46400104BFFF72DFF002803D000210A1CFCF7E6
:10F47400EDFE002401A80470FFF7A6FFA04203D00C
:10F48400211C221CFCF7E2FE0748FFF73DFF002881
:10F4940003D000210A1CFCF7D9FE06B010BDC046FB
:10F4A400B42B00200DF40300B1F4030008B5FFF7FA
:10F4B40053FC08BD08B5002904D00020011C021C1F
:10F4C400FCF7C4FEFFF7A4FE08BD000008B5082041
:10F4D4001421054AFDF762F8002803D000210A1C14
:10F4E400FCF7B4FE08BDC046642A002008B5031C1E
:10F4F4000A1C0248191CFCF7A9FE08BDEFBEADDECC
:10F5040037B58022544BD205D458B13C61424C41AA
:10F51400E4B2002C01D00021D150A023E922032120
:10F52400DB05D20099508021A122C902D200995052
:10F534004A4B1A68F0239B029A4204D00020011C13
:10F54400021CFCF783FE80235B051A698023DB0021
:10F554009A4204D00020011C021CFCF777FE404BA9
:10F5640000200093032105223E4BFDF7EFFB00280A
:10F5740003D000210A1CFCF769FEA025E8233A4ABF
:10F58400DB00ED05EA50FDF7F9FFFEF741F800282E
:10F5940021D08022354BD202EA50FEF748F80028E9
:10F5A40003D000210A1CFCF751FE01206040FFF744
:10F5B40035FFFFF78BFFFEF764F8002803D0002126
:10F5C4000A1CFCF743FE8021A123A022C902DB0010
:10F5D400D205D15005E001206040FFF71FFFFFF77F
:10F5E40075FFA023A222DB05D2009A581D1CD30369
:10F5F40001D5002C0CD080241C4BE402EC50FDF708
:10F60400D3FF00280CD000210A1CFCF71FFE07E0E2
:10F61400C0239B019868FDF701FF002805D1EAE7A4
:10F62400A123A022DB00D205D450C024A401A068E9
:10F63400FDF7F4FE002806D0FDF7EAFF002802D10A
:10F64400A068FDF7BDFFBFF34F8F094A094BDA608D
:10F65400BFF34F8FFEE7C0461C05000014100010D6
:10F66400F5F30300242800200C0003000C0500001F
:10F674000400FA0500ED00E0014A024B1A607047ED
:10F684000024F400142000208022AA21FF23D205A4
:10F69400C90010B51D4853501D4950501D4A1168EA
:10F6A4000B40111C012B19D11B4B1B681B0715D1D7
:10F6B4001A4BE0241A68F023101C184022420BD184
:10F6C400174A12681A4209D1164A174B1A60802247
:10F6D400164B12021A6001E03028F1D00B68DBB23D
:10F6E400012B12D10C4A126812070ED1F0210B4AD9
:10F6F40012680A40402A08D1094A12680A4204D111
:10F70400C1228021D200C9058B5010BD0F000F000B
:10F7140024050000E00F00F0E40F00F0E80F00F013
:10F72400EC0F00F0DFFF07C004050040186C004038
:10F7340002B4714649084900095C49008E4402BC80
:10F744007047C046002243088B4274D303098B429E
:10F754005FD3030A8B4244D3030B8B4228D3030C9D
:10F764008B420DD3FF22090212BA030C8B4202D33F
:10F774001212090265D0030B8B4219D300E0090A67
:10F78400C30B8B4201D3CB03C01A5241830B8B4270
:10F7940001D38B03C01A5241430B8B4201D34B0359
:10F7A400C01A5241030B8B4201D30B03C01A5241BE
:10F7B400C30A8B4201D3CB02C01A5241830A8B4243
:10F7C40001D38B02C01A5241430A8B4201D34B022C
:10F7D400C01A5241030A8B4201D30B02C01A524190
:10F7E400CDD2C3098B4201D3CB01C01A5241830944
:10F7F4008B4201D38B01C01A524143098B4201D37E
:10F804004B01C01A524103098B4201D30B01C01AA8
:10F814005241C3088B4201D3CB00C01A5241830822
:10F824008B4201D38B00C01A524143088B4201D34F
:10F834004B00C01A5241411A00D2014652411046AF
:10F844007047FFE701B5002000F00CF802BDC04688
:10F854000029F7D003B5FFF775FF0EBC4243891AA0
:10F864001847C0467047C04670B50F2A32D9041CE9
:10F874000C430B1CA40731D1151C041C103D2D098D
:10F8840001352D0149191E6826605E6866609E6810
:10F89400A660DE681033E66010349942F3D10F237A
:10F8A40045191340032B1BD91C1F0023A408013442
:10F8B400A400CE58EE500433A342FAD1ED18C9186F
:10F8C40003231A4005D00023CC5CEC54013393424B
:10F8D400FAD170BD051C002AF5D1FAE7051CF2E740
:10F8E4001A1CF8E70B09080A0100000000509D00EB
:10F8F40045C103001DC103000100FFFF35E3030000
:08F904009DE303000024F40060
:10FC000000000000000000000000000000000000F4
:10FC100000000000000000000000000000000000E4
:10FC200000000000000000000000000000000000D4
:10FC300000000000000000000000000000000000C4
:020000020000FC
:020000041000EA
:0410140000C0030015
:040000033000C0C544
:00000001FF
