:020000023000CC
:10C0000000400020C5C00300B1F50300B1F50300F6
:10C010000000000000000000000000000000000020
:10C0200000000000000000000000000011F6030006
:10C030000000000000000000B1F50300B1F50300AE
:10C04000B1F50300B1F5030029CC0300B1F50300FD
:10C05000B1F5030000000000B1F50300B1F50300E5
:10C06000B1F50300B1F50300B1F50300B1F503002C
:10C07000B1F50300B1F50300B1F50300B1F503001C
:10C08000B1F50300E1C40300B1F50300B1F503000D
:10C090009DC50300B1F503008DF50300B1F5030064
:10C0A000B1F50300B1F5030000000000000000003E
:10C0B0000000000000000000000000000000000080
:04C0C000000000007C
:10C0C40008B503F015FD09480949884202D0094A18
:10C0D40003F0C8FC0021084A084800F073F800F097
:10C0E4004BF803F0FDFC03F05BFBFEE700200020AF
:10C0F400B4FB030014000000000C00001420002016
:10C10400F8B5C046F8BC08BC9E467047F8B5C046B2
:10C11400F8BC08BC9E46704710B5064C2378002B2B
:10C1240007D1054B002B02D0044800E000BF0123D7
:10C13400237010BD1420002000000000B4FB030095
:10C1440008B5084B002B03D00748084900E000BF9E
:10C1540007480368002B00D108BD064B002BFBD019
:10C164009847F9E700000000B4FB03001820002002
:10C1740014200020000000000E4B70B500251E1C8A
:10C184000D4CE41AA410A54204D0AB00F358984710
:10C194000135F8E7FFF7B4FF084B00251E1C084CD7
:10C1A400E41AA410A54204D0AB00F3589847013513
:10C1B400F8E770BD002000200020002000200020AF
:10C1C40004200020031C8218934202D0197001330A
:10C1D400FAE77047BFF34F8F024A034BDA60BFF3AD
:10C1E4004F8FFEE70400FA0500ED00E02EDF7047F4
:10C1F4002FDF704710B503240723144010D1094BD7
:10C204001A604B1CDB009BB2D218074B1A60074B19
:10C214001C70074B1C70074B1880074B1980231C9C
:10C22400181C10BD30200020342000203B200020AA
:10C234003A200020382000203C200020F0B5474B55
:10C2440087B002921A8801900E1C039309208A4237
:10C2540000D281E004ABDF1D00233B70404B04257A
:10C264005B68DB05DB0D1ED0103BD9B24AB2002A55
:10C274000BDA0F220A40083A3A4B92089200D2187D
:10C2840003230B405268DB0007E092083649C032B2
:10C294009200525803210B408B40DA40D3B29B09E1
:10C2A400DDB2012B0DD0381CFFF7A0FF022801D10D
:10C2B40072B607E0002805D000210A1CFFF78AFFA8
:10C2C40000E01D1C294B2A4A1B781288DBB200218E
:10C2D400934201D20133D9B2264B1B7899420CD038
:10C2E400224900200C780B78DBB2934201D201334F
:10C2F400D8B20870012D03D112E0012D2BD01E4CB1
:10C3040062B63878FFF774FF0223021C9A4303D005
:10C3140000210A1CFFF75EFF174B04209C421BD030
:10C32400164BE5001B685D19029B2B60019B002BDB
:10C334000ED0002E0CD0039B01991888104B444357
:10C344001868321C001903F08DFBAE80002003E056
:10C354000020A88000E0042007B0F0BD38200020B1
:10C3640000ED00E018ED00E000E100E03B200020DB
:10C374003C2000203A200020FFFF00003020002055
:10C384003420002010B5104B10491A780B789A42CB
:10C3940019D00F480B780A780488D2B2DBB2002097
:10C3A400944201D90132D0B20A4A087010880A4A6C
:10C3B40058431268DB001018084A1268D318998889
:10C3C4001B689847DFE710BD3B2000203A2000207F
:10C3D4003C20002038200020342000203020002081
:10C3E40010B54378827801339A1A041C501E824196
:10C3F4005242134022780020934205D00B60182348
:10C40400607843436068C01810BD0000154B0220DB
:10C414005968C905C90D24D01039CBB25AB2002AC3
:10C424000BDA0F221A40083AC24082400E495218D1
:10C4340003210B4052688B4007E092080B4BC0323B
:10C444009200D25803230B40DB00DA40D3B29B099D
:10C45400DBB20020012B04D0033B5A425A41023084
:10C46400801A704700ED00E018ED00E000E100E004
:10C474002F23C046C046C046C046C046C046C0463C
:10C48400C046C046C046C046C046C046C046013B42
:10C49400002BEED170470000802238B50B4B92027E
:10C4A400DA678023D2220125094C5B029200A35053
:10C4B400403AA3506560FFF7DBFFA5600024054BFD
:10C4C4001C60FFF7D5FF044B1C7038BD04E100E08D
:10C4D40000100140402000206820002070B5002496
:10C4E400224B5C649C64DC641C655C609C60204B37
:10C4F4001E68731C39D01F4A1F4BD3581F4A156836
:10C504005D1B2D022D0A24231D4A73431268D31880
:10C514005A68954215D3AD1AA4181A4A1E6A1268AD
:10C52400002A09D09869D9699047002807D00021CA
:10C534000A1CFFF74FFE02E09A69D8699047731C02
:10C54400E1D1114B114A197813788B4205D101338B
:10C55400DBB2022B00D10023137013780C4A9B002A
:10C564009C5080220B4B52035A6070BDFC1001405A
:10C574005820002000100140040500004020002045
:10C584004820002044200020542000205520002072
:10C5940060200020FCE100E0F0B5C249C24A0B680B
:10C5A400C2488BB0039300781378984211D00133BA
:10C5B400DBB2022B00D1002313701378BC4A9B001A
:10C5C4009F58039BFB181B021B0A0B600123049357
:10C5D40001E000270497B74B1B680593B64B1B7803
:10C5E4000193B64B019A1B6802920993B44B1B68E2
:10C5F4000093AC4B1B680893B24B1B780793059BC5
:10C60400029A013AD2B20292FF2A68D0029AD50065
:10C61400099A551929786A788A42F1D018224A432E
:10C62400AC7801316868C9B2641A8218601E84410A
:10C63400107864422140022803D01A1C03284CD1EC
:10C6440041E02420526850439446009A8018027DA9
:10C654000692069C1A1C002C3FD01E1C1C1C721C2B
:10C6640008D0664508D024227243009C1219341C59
:10C67400166AF4E71A1C23E01A1CB4420DD12422D2
:10C684005343009A9B181A6A531C06D101268E4BF9
:10C694009E60069B0793002308934368066A9C46A2
:10C6A40024235C43009BE4182662741C08D02423D2
:10C6B4007343009C1B195E686446B44664445C6022
:10C6C4000023037509E0531C07D024235A43009B1D
:10C6D400D21800231375126AF5E7131C9BE7754AF9
:10C6E400089913606F4A11606946764A097F117090
:10C6F400049A002A09D1059A9B1A5A1E9341DBB267
:10C70400029301235B429C462BE06D4A002015688E
:10C714000122524294465A1C1FD024225A43AA187A
:10C7240051688F4205D26348C91B036051600123DD
:10C7340016E07F1A40180021146951601175166AB9
:10C744008C4208D00399D46041180902090A916007
:10C7540061469C461162331CDDE7564A136002337E
:10C764000293544B1B680393544B1B680693544B1E
:10C774001B6800934B4B1B680593524B1B78079324
:10C78400039B019A013AD2B20192FF2A00D19FE0A1
:10C79400019A0699D2008A186146013108D0604690
:10C7A40024214143009864464118086A844628E0DD
:10C7B400117850788842E4D01820484354680131F5
:10C7C40020189478C9B211708C4201D100211170E3
:10C7D400017844681D1C012961D123316143009D06
:10C7E40069180E7D1D1C002E59D185688D60C568A1
:10C7F400CD6005690D614069C8610798002800D0C3
:10C804008E608868059D314F451B2D022D0ACE6828
:10C81400BD4202D8AD194D600AE0059D281A0002F8
:10C82400000A864202D9361A4E6001E000204860B0
:10C8340000208860C860013008750238086225301D
:10C84400061C66430099251C8E19591C27D0584391
:10C85400009D716828184568A94204D8691A416086
:10C86400251C33621BE01D1C049324206843009F95
:10C8740038184768B94206D9006AC91B0495471C91
:10C8840005D0051CF1E77F1A4760281C049D7160E0
:10C8940024214D43009930624D192C621D1C2B1C20
:10C8A4007AE7C04640200020542000205520002074
:10C8B40060200020582000204C2000205020002020
:10C8C400482000205C20002000100140FEFF7F0073
:10C8D4002B4A1360039A934202D1029A002A49D048
:10C8E4005A1C45D0274A284C116824225343CB189C
:10C8F4005B68264A0093264BA5581B68254E019376
:10C90400EB1A1B021B0A0333029333780392002BA6
:10C9140012D18023C13A5B02FF3AA350403AA3509C
:10C92400C021802201271C4B920249005A501A60F0
:10C934002760FFF79DFD3770029B009A934200D257
:10C94400131C019A9B18A8221B021B0AD200A35095
:10C95400039AA258521B1202120A5D1B2D020332C3
:10C964002D0AAA4206D980220C4B92025A6001E099
:10C97400FFF792FD00220A4B1A700BB0F0BDC046BF
:10C984005820002048200020001001400405000029
:10C99400402000206820002000E100E0FCE100E0ED
:10C9A4005C200020F8B51E1C051C0F1C141C07205D
:10C9B400B3074FD1002E4DD0FFF76EFD2421264B37
:10C9C400069A1A60254B1F704F43254BF1191E60C0
:10C9D4000A1C331C994204D00020187018752433A3
:10C9E400F8E703201F4B18701F4B196018231831E8
:10C9F4000E1C634300205160107050709470083214
:10CA0400C918B242F6D10122184B52421A60184B8F
:10CA140080211870174BC5241870C023FF26164AAE
:10CA240049035B00D150A4001359B3433F3E334341
:10CA34001351A12311601149DB00CD50043C155959
:10CA44000F4B2B40C0252D022B4313510D4BCA58BD
:10CA54000D4B1A60F8BDC04644200020562000202B
:10CA6400482000204C200020502000205820002086
:10CA7400542000205520002000E100E00010014077
:10CA8400FF00FFFF0405000040200020114BF0B51B
:10CA94001C68071C0820002C1AD00138002A17D063
:10CAA400002F15D000250C4B187885420FDA261C70
:10CAB4002434231C243B1B78002B06D101207170E5
:10CAC4003070B261181C3D6002E00135EDE70420CE
:10CAD400F0BDC0464820002056200020F0B51F4B72
:10CAE400061C1C6885B00820002C34D01C4B01386F
:10CAF4001B789E422FD204292DD924237343E31893
:10CB04001C780130012C26D15B780027012B00D141
:10CB14000F1C01920D1CFFF779FC124BC0001C681E
:10CB240003A92418201CFFF75BFC031C0420002B22
:10CB340011D001220C491A700C4A5E608A580020F8
:10CB44009A60019ADD605A6180221F61039B52033F
:10CB54006370074B5A6005B0F0BDC0464820002002
:10CB64005620002050200020001001400405000041
:10CB7400FCE100E0154B37B51A680823002A22D0DF
:10CB8400134B1978072388421DD21D3343439A5C03
:10CB94000823012A17D1051CFFF738FC0D4BC000F0
:10CBA4001C6801A92418201CFFF71AFC0423002880
:10CBB40009D08022023B0370019B45606370064BE1
:10CBC40052035A600023181C3EBDC0464820002072
:10CBD4005620002050200020FCE100E0002201212A
:10CBE400044B1A70044BD9605960A021C9005A50F3
:10CBF4007047C0467020002000200040012307B584
:10CC0400054A6846D360054A13706A4602331370B6
:10CC1400034B1B68984707BD00200040702000208C
:10CC24006C20002013B5264C264BE268002A14D051
:10CC3400C12292009958042211420ED00021E160D1
:10CC4400A321C9005B582049DBB20B8069460B71F4
:10CC54001E4B0A701B6868469847236A002B16D03F
:10CC6400C123184A9B00D3581B0610D50022144B2D
:10CC74001A62174B1B78DBB2934208D0022B04D9FB
:10CC8400032B04D1FFF7AAFF01E0FFF7B7FFA26A65
:10CC94000C4B002A13D0C12292009A5892050ED54B
:10CCA4000021074A684691629021C9005A585A5097
:10CCB400022369460B70054B01921B68984713BD0C
:10CCC400FC20004000200040082000206C200020B0
:10CCD4007020002072DF704779DF70477DDF704776
:10CCE40065DF7047F0B50024061C251C87B00C9F37
:10CCF40000933B7803910292019333889D423ADA80
:10CD04007368A9005918042205A802F0ABFE04AB0D
:10CD140005A8D91C0022FFF7E3FF002835D104AB96
:10CD2400DB78029A934222D16242624102993B78B3
:10CD3400520059188A181F2A1BDC002C07D1694697
:10CD44009A1C3A700133009A097BDBB2D15404ABCC
:10CD5400DC1C3A78009B05A89A18211CFFF7C0FF39
:10CD6400002812D1237801243A78D3183B70013576
:10CD7400C3E70C2009E00020844206D03B78019AE6
:10CD8400013B9B1A0199009A535407B0F0BDF7B5C3
:10CD9400089E171C00960222051C1C1CFFF7A2FF0C
:10CDA400002806D10096281C391C1022231CFFF7EA
:10CDB40099FFFEBD0023F0B51370037889B0061CFB
:10CDC4000D1C141C002B03D1B378002B4BD029E08D
:10CDD40043780C201D2B00DD61E10E2704ABFF1806
:10CDE4001D23881C391C3B80FFF778FF002800D0E6
:10CDF40055E13378022B03D13B8809221D2B08D936
:10CE04007378002B03D09BB208221D2B01D9082272
:10CE14003B88DBB2591C29706A70227802329B1855
:10CE24002370D1E723780C201B2B00DD37E10E277C
:10CE340004ABFF18381CFFF74FFF002800D02EE189
:10CE440023785A1C22700322EA5423785A1C227035
:10CE54001922EA5423783A88EB181A70120A5A7085
:10CE6400237802332370B388002B1FD0B2680720C5
:10CE7400002A00D113E122780530911CCB181F2B16
:10CE840000DD0CE1531C2370B3880133AB542378C9
:10CE94005A1C22700122EA542078B2882818B168FA
:10CEA40002F0E0FDB2882378D3182370F368002BD6
:10CEB40012D01A7823780C201C2B00DDEFE0591CCB
:10CEC40021700221E9542378591C21700A21E95464
:10CED4002378591C2170EA54338A002B03D1338BF5
:10CEE400002B16D00AE0301C0094103002210622D8
:10CEF4002B1CFFF74CFF0028F1D0D0E0301C00942D
:10CF04001830032107222B1CFFF741FF002800D013
:10CF1400C5E0338C002B0AD0301C0094203014213F
:10CF240015222B1CFFF733FF002800D0B7E0B36AAB
:10CF3400002B49D022780C20049206321F2A00D9F3
:10CF4400ADE019880538052900D8A8E0554A564FA0
:10CF54008A1892B2BA4200D8A1E05A880392052AEC
:10CF640000D89CE04F4FBC469444674602AA978180
:10CF74009789BC464C4FBC4500D890E04B4FB94212
:10CF840005D0039ABA4202D0914200D987E0049AAC
:10CF940004990132227005226A542278511C2170AE
:10CFA4001221A95422781988AA181170090A5170FB
:10CFB40022780232D2B222705988AB181970090A49
:10CFC4005970237802332370F76A002F29D03A79F5
:10CFD4002178931C881CDBB2C3180C201F2B5EDC49
:10CFE4004B1C033223706A5423785A1C2270FF228C
:10CFF400EA5423783A88EB181A70120A5A70237884
:10D004000233DBB22370BA88002A0AD0B968053823
:10D01400002944D0E81802F025FDBA882378D318F3
:10D024002370331C343305931B78002B01D100206B
:10D0340035E0336B002B31D000230493059B049A15
:10D044001B789342F3D90C27049B22785F43336BFC
:10D05400511CDF193B7921700333AB5423785A1CDC
:10D0640022701622EA5423783A88EB181A70120AAE
:10D074005A7020780230C0B22070BA88002A09D0D1
:10D08400B96800290AD0281802F0ECFCBA88237881
:10D09400D3182370049B0133DBB2CEE7072009B019
:10D0A400F0BDC0467FF3FFFF7DF30000FFFF0000EB
:10D0B400F0B593B06B466A469E1D0023D71D0D1C28
:10D0C40033703B7098420BD08388002B01D107202A
:10D0D40024E08368002BFAD01B785B07F7D50DE0BA
:10D0E400041C002D03D0AB88002BF0D10EE02A1CC9
:10D0F40031783B78201CFFF7EDFD0FE002A9321CCC
:10D10400FFF758FE02AC0028EBD007E03A1C281CBD
:10D114000AA9FFF74FFE0AAA0028E9D013B0F0BD10
:10D1240075DF704776DF70477ADF70477BDF7047C3
:10D13400174B37B51888174B984227D0164A174D06
:10D1440013782C1C0133DBB21370297B994208D36A
:10D154001349FFF7E5FF002818D0AB69002B14D161
:10D1640014E0002313702B7C002B08D03B21FFF725
:10D17400D9FF002803D0AB69002B00D0984763691E
:10D18400002B03D0002201A80270984737BDC04687
:10D194009C200020FFFF00007A2000207C2000203B
:10D1A4009E20002037B5184B184A5B881188184C0C
:10D1B400184D99420CD852889A4209D36369002BBE
:10D1C40003D0012201A80270984700232B7037BDB9
:10D1D4002B78002B05D06369002BF6D001A8002220
:10D1E400F1E70D4B1B78002B01D1616800E0A168C9
:10D1F4000A4B00221868FFF771FC0028E5D0A369E8
:10D20400002BE1D1E1E7C046722000209E200020DF
:10D214007C200020712000207A200020982000200B
:10D22400144938B5021C0B1C32CA32C332CA32C389
:10D234001268114C1A600022104B01681A70201CED
:10D24400914213D0083202F00DFC201CFFF76CFF52
:10D2540000280ED101220021094B52421A80094BA9
:10D26400094A0A481970FFF711FC02E0FFF75EFF54
:10D27400EEE738BD7C2000209E2000207120002095
:10D284009C2000207A20002035D103009820002023
:10D2940008B5024B1868FFF76DFC08BD9820002004
:10D2A40010B50388112B19D002D8102B05D043E0F8
:10D2B400122B3AD0502B21D03EE0011C82881F4B08
:10D2C4000E311A801E48082202F0CCFB00221D4BAE
:10D2D4001A701D4BDB8993422ED12BE00122174B90
:10D2E40052421A800022174B1A70184B1868FFF725
:10D2F40041FC002820D0144B9B6912E0124CC188D9
:10D30400E289914218D1C38B022B15D10130C37F1E
:10D31400DB070FD40D4B1868FFF72CFC00280BD04B
:10D32400A369002B08D0984706E0811D0822044811
:10D3340002F098FBFFF736FF10BDC0469C2000208A
:10D34400722000207A2000207C20002098200020D9
:10D35400A0DF7047A2DF7047A5DF7047A6DF7047E4
:10D36400A8DF704763DF7047F0B50E2497B000283C
:10D3740000D1C4E0002900D1C1E04B68002B00D1EA
:10D38400BDE001235B420380009110225D49051C2E
:10D3940006A802F067FB0A215B4B04AE338002ABA4
:10D3A40006A8C918FFF7DEFF041E00D0A7E02A1D57
:10D3B4000120311CFFF7CCFF041E00D09FE0B6789B
:10D3C4000FAFAE71211C1C22381CFEF7FBFE042299
:10D3D4003B78211C13433B7002AB9E734B4B02AA58
:10D3E4009480938101221023134302AA53710323CF
:10D3F4000AAE9371301C1422FEF7E4FE05AB0A93C7
:10D4040003AB73601423B3812B1CA888391C321C12
:10D414000833FFF79FFF041E71D1211C1C22381C06
:10D42400FEF7D0FE08223B78211C134392181343C5
:10D434003B70AB7902AA9373354B948093810F228E
:10D44400A3B21B0A93430E3A13430E321340013224
:10D45400134302AA53711323301C93711422FEF751
:10D46400B1FE05AB0A9303AB73601723B3812B1C86
:10D47400A888391C321C1033FFF76CFF041E3ED100
:10D48400211C1C22381CFEF79DFE02223B78211C25
:10D4940013433B70AB7902AA93731E4B9480938120
:10D4A4000F22E3B293430E3A13430E321340013278
:10D4B400134302AA13710323301C93711422FEF741
:10D4C40081FE05AB336003AB736002233381B38108
:10D4D400009B391C33612B1CA888321C2033FFF7B6
:10D4E40039FF041E0BD1009B5B680193AB62009B68
:10D4F4009B68002B00D0EB620122074B1A70201CA2
:10D5040017B0F0BD9CFB030030150000321500007D
:10D514003115000034150000A6200020F0B5061CCB
:10D5240087B00E20002E29D03788154B06389F422D
:10D5340024D0144B1B78002B20D0134C0738A07038
:10D54400080AE1702071080C090E0723A1716946CD
:10D55400102202ADCB8060710021281C6370227000
:10D56400FEF730FE338A381C2B800123AB706B46E8
:10D57400291C0633AB60EC60FFF7F0FE07B0F0BD8A
:10D58400FFFF0000A6200020A7200020F0B5061C05
:10D5940087B00E20002E27D03788144B06389F42C0
:10D5A40022D0134B1B78002B1ED01123114D6A4639
:10D5B4002B700B0AAB700B0CEB70052302AC69707B
:10D5C400090ED3802971201C00211022FEF7FAFDD8
:10D5D400338A381C23800123A3706B46211C063335
:10D5E400A360E560FFF7BAFE07B0F0BDFFFF0000DF
:10D5F400A6200020A7200020F0B5061C87B00E202E
:10D60400002E22D03788124B06389F421DD0114B72
:10D614001B78002B19D0104D102369706846032124
:10D6240002ACC180AA7000211A1C201C2B70FEF7CA
:10D63400C9FD338A381C23800123A3706B46211C47
:10D644000633A360E560FFF789FE07B0F0BDC0466E
:10D65400FFFF0000A6200020A7200020F0B589B01D
:10D66400002800D1A2E0002900D19FE0826A002AAC
:10D6740000D19BE00B88112B1AD004D8102B00D0BA
:10D6840094E08B8816E00D1C041C502B02D0512B07
:10D6940012D08BE0C9880389994200D086E0082320
:10D6A40004A90B70EB8B20350B718D6090477DE0E6
:10D6B40001235B42038079E08B79022B00D075E073
:10D6C4000989028A914271D101AE04AF3B70338063
:10D6D400808A0021321C6B46FFF73EFE002804D0EE
:10D6E400E36A002B05D0984703E06B461B78DB0701
:10D6F40007D4FE232088FF33391CBB80FFF730FE9C
:10D704004EE000232088391CBB80FFF729FE002847
:10D7140046D1EB1CD97F481E07283DD802F0FCF8FF
:10D72400040E1B1D1F213A23002333702B8C012B65
:10D7340002D8201C012108E0012308E001233370F2
:10D744002A8C9A4203D8201C0221062226E0233583
:10D754003371B56019E0022316E0032314E00423B7
:10D7640012E0052310E02B8C022B02D8201C082188
:10D7740013E06B1DDB7F0435EA7F1B021343B38088
:10D7840001D1073300E006233370A36A201C311C47
:10D7940098470BE00923F7E7201C0322FFF72CFF2F
:10D7A400002803D0E36A002B00D0984709B0F0BDED
:10D7B40040DF704711DF704713DF704708B5FFF78C
:10D7C400F7FF002803D000210A1CFEF703FDFEF733
:10D7D400D9FD034B1B78023B022BF0D808BDC04691
:10D7E400AE20002008B5074B1878012802D1022981
:10D7F40000D11970002A04D00021101C0A1CFEF765
:10D80400E9FC08BDAE20002010B50C4C1C21201CE6
:10D8140001F088FD002803D000210A1CFEF7DAFC81
:10D82400201C07491C22002301F0F4FC002803D02B
:10D8340000210A1CFEF7CEFC10BDC046B02000201B
:10D84400B8200020036807B5013301D1002017E098
:10D8540001A800F067F9019B1A78012AF6D1002289
:10D864005988914206D0C02189018868996800F0DE
:10D874005FF9021C019B5888801A42425041C0B291
:10D884000EBD0000844684B0F0B585B01D1C0D9318
:10D894006346C4B20A901B0C03A80F1C0B91161C00
:10D8A4000C92019300F03EF9002C09D16A463B4BDF
:10D8B4009288FF215A8001229D601A70197140E0FC
:10D8C400012C14D16A46354B9288DF605A80F219D4
:10D8D40052199A60A5221A705A321A710E9A1E6150
:10D8E4005D619A612E4B1C70FFF78EFF51E0032C93
:10D8F4000ED1039A294B1178197051889268598076
:10D904009A60AA22DF601A711E615D61A93A18E06B
:10D91400022C19D1039A214B1178A52905D1002293
:10D924005A809A60FF321A7004E019705188926824
:10D9340059809A60FF221A710022DA601A615A61D2
:10D944000132174B1A70CFE7052C09D100F066FF9E
:10D95400002803D000210A1CFEF73CFC032216E039
:10D96400042C09D100220D4B5A809A60FF321A70A0
:10D97400039A12791A71B7E7062C0AD100F04EFF08
:10D98400002803D000210A1CFEF724FC0422044BC7
:10D994001A7005B0F0BC08BC04B01847B8200020C9
:10D9A400AE2000201FB5084B01931C2302931B3BA0
:10D9B400039301F073FB002803D101A8034901F08C
:10D9C400ABFB05B000BDC046E9D70300B020002082
:10D9D40010B500F01FFA002805D100F079FE041CF0
:10D9E400FFF7ECFE201C10BD10B5FFF7E3FE002886
:10D9F40003D000210A1CFEF7EDFB0D4B1968002330
:10DA040001229A40114201D00A48C2670133202BF7
:10DA1400F6D1C024A401A068FFF7CEFE002803D0ED
:10DA240000210A1CFEF7D6FBA06800F073F810BDB5
:10DA340000E100E004E100E007B501A800F072F89D
:10DA4400019B01201A78A52A04D01879AA384342E8
:10DA54005841C0B20EBD10B500F00EFC00280BD02A
:10DA6400642001F007F900F07DFB002809D00021B3
:10DA74000A1CFEF7AFFB04E000F0DCFB021EEFD152
:10DA840011E000F0F9FB002803D000210A1CFEF786
:10DA9400A1FB00F0B1FB0022041E944203D0111C30
:10DAA400FEF798FB221C101C10BD10B588B003AC07
:10DAB400201C00211422FEF785FB0223237000237F
:10DAC4000434009303980ECCFFF7DCFEFFF776FED8
:10DAD400002008B010BD000030B5051C89B001ACB1
:10DAE400201C0B491C22002301F0D2FB23782B704D
:10DAF40063886B80A368AB6023792B71E368EB6068
:10DB040023692B6163696B61A369AB6109B030BDA3
:10DB1400B0200020026882F3088843681847C04692
:10DB24007047C046014B03607047C04600FC0300C9
:10DB340030B5002A01D0138800E00B4B051C4118B6
:10DB44008D420FD02C785BBA9BB263401A1CDBB2B7
:10DB54001B095340180343409BB2DAB252015340AD
:10DB64000135EDE7181C30BDFFFF000018DF7047DA
:10DB74007047000070B5141C1D1C022902D0042932
:10DB84000AD019E0104B1B78052B15D10F4B04203C
:10DB94001B68002B0DD10FE00B4E3378022B0BD1F9
:10DBA4000B4B5B6898470320084B30701B68002BB5
:10DBB40002D0211C2A1C9847002C04D00021201CD0
:10DBC4000A1CFEF707FB70BDDC200020D4200020D7
:10DBD40004210020012200B5074B89B01A7003AB61
:10DBE40004321A70079A039800920499059A069BC6
:10DBF400FFF748FE09B000BDE8200020032300B56C
:10DC040089B003A80370074B1B884380064B079811
:10DC140059689A68DB6800900398FFF733FE002088
:10DC240009B000BDDA200020F4200020012200B554
:10DC340089B003AB1A70084A12885A80C0239B012A
:10DC44009B6803980093054B59689A68DB68FFF753
:10DC540019FE002009B000BDDA200020F4200020C5
:10DC640010B588B003AC201C00211422FEF7AAFAD8
:10DC74000423237000230434009303980ECCFFF78D
:10DC840001FE08B010BD0000022208B50B480C4B81
:10DC940018600C4B1A70C0239B019968F0239B02F7
:10DCA400591A094B4908C91801F0B2FB002803D0DE
:10DCB40000210A1CFEF78EFA08BDC046EC200020A5
:10DCC40054210020DC20002000FCFFFF022208B5C4
:10DCD4000748084B1860084B1A70084B196801F084
:10DCE40097FB002803D000210A1CFEF773FA08BD35
:10DCF400E020002054210020DC2000205C210020B2
:10DD040070B5154C154D88B0201CE96801F080FBF6
:10DD1400002803D000210A1CFEF75CFA104B201CDB
:10DD24005968EA68002301F04BFB061E11D103ACCD
:10DD3400311C1422201CFEF745FA0A4B22691B8869
:10DD44006380EB680398E36000926168A268FFF760
:10DD540099FD301C08B070BDE0200020F4200020A4
:10DD6400EC200020DA20002038B50F4B08221D7863
:10DD7400002D17D10D4C2068FEF7FCFE002803D0BF
:10DD8400291C2A1CFEF726FAF021206800228903A8
:10DD9400FEF7A4FE0022041E944203D0111CFEF7D9
:10DDA40019FA221C101C38BDE82000205021002044
:10DDB400F0B51F1C032385B0061C01909408684627
:10DDC4000D1C009302910394FFF7D0FE00281ED08F
:10DDD40080235B019D4212D801236846009301967B
:10DDE40002950394FFF7C2FE002810D1032368466E
:10DDF4000093019602950394FFF7B8FE07E0F01B29
:10DE0400E91B3A1C3B1CFFF7D3FF0028E4D005B004
:10DE1400F0BD0000F0B5002785B000210C2201A858
:10DE2400FEF7D0F91E4B1F4D01931F4B01A81F7025
:10DE34001E4B291C1F8001F0A5FA1D4E041EBC4276
:10DE440001D037702AE0C0231A499B010A1C9B6841
:10DE54006B6081CD81C2F0229202D21A5208164D13
:10DE6400D3184B60281C211C144AFEF70FFE00280F
:10DE740003D0211C221CFEF7ADF9F0212868890388
:10DE84000022FEF72BFE002803D000210A1CFEF717
:10DE9400A1F900200A4B18600123337005B0F0BDCE
:10DEA40079DB0300E0200020D8200020DA200020C5
:10DEB400DC200020EC20002050210020D9DB0300CE
:10DEC40058210020014B18607047C046D420002020
:10DED40038B5294B4268191C31CA31C112680A602D
:10DEE40019784A0702D506248A0743D103255A68BC
:10DEF40006242A423ED1986828423BD1DB682B4253
:10DF040038D18218D318F0221C4D24192B609201A9
:10DF140090422FD8C0229201C8070CD59168EF22F5
:10DF24009202521A934225D8154B164A1A60164A81
:10DF34005A60164A10E09068F0229202121A5208AF
:10DF4400934217D80E4B124A1A60124A5A608A0733
:10DF540001D5114A00E0114A9A60114B08241B783C
:10DF6400012B07D1FFF700FF041E03D1044B2868DF
:10DF74001B689847201C38BDF42000205C21002039
:10DF840004210020D1DC030065DC030031DC030044
:10DF94008DDC030075DB030001DC030005DD0300F9
:10DFA400DC200020F8B5041C0E20002C2ED0A36821
:10DFB40002309B072AD1164B1B78052B25D16368A9
:10DFC400144D154F9E002B683A68F318934204D9F8
:10DFD40001235B422B60043818E0FFF7C5FE0028DC
:10DFE40014D10E4BA1681868321C2B6801F0E8F9B3
:10DFF40000280BD12B680930F6183B682E60F61AFE
:10E00400731E9E417642304000E00820F8BDC046B1
:10E01400DC200020582100205C2100205421002015
:10E024000C4B70B51C68002C10D10B4E3378042BAC
:10E034000CD10A4D0A48297800F050F9002802D181
:10E044000523337003E02C70041C00E00824201C1A
:10E0540070BDC04658210020DC200020D8200020BC
:10E0640010210020F8B5134B1A78032A02D0042A91
:10E0740002D018E004221A700F4B1C68002C12D135
:10E08400051CFFF771FE00280FD16B680B4E9A0038
:10E0940033789F18402F0AD80948A968C01801F09E
:10E0A400E1FC377004E0082402E0041C00E00924C9
:10E0B400201CF8BDDC20002058210020D82000209E
:10E0C4001021002038B50E4C08202378052B16D1DA
:10E0D4000C4D0D4B2A681B68082093420FD1062370
:10E0E4002370FFF741FE002809D1084B29681B68FB
:10E0F400586800F03BF9002801D10723237038BD8C
:10E10400DC2000205C210020582100205421002024
:10E1140008B5094B08201B78072B0CD1074B18684E
:10E12400FEF728FD002803D000210A1CFEF752F850
:10E13400034B9B68984708BDDC2000205021002039
:10E1440004210020062200B589B003AB1A70079A97
:10E15400039800920499059A069BFFF793FB09B074
:10E1640000BD0000F0B58DB005A8FFF7B5FC089C14
:10E17400002C3CD080230B9D5B01E318AB422AD9D1
:10E184001C4BEE18C0239B019B687608A34209D35D
:10E19400802372005B01D1185019331CA21AFFF7B7
:10E1A40007FE23E0802301275B01F31801A80197F0
:10E1B400029303930497FFF7D9FC002816D1802318
:10E1C40001A85B010197029303930497FFF7CEFC28
:10E1D40000280BD1DCE7012301938023A4085B0111
:10E1E40001A8029503930494FFF7C0FC041C201CAF
:10E1F4000DB0F0BD00F0FFFF00B58DB005A8FFF72E
:10E204006BFC0998002813D0089A0B9B002A06D1AE
:10E21400C0239B019A68F0239B029B1A5B08D318C6
:10E2240000228008039001A801920293FFF79EFC4C
:10E234000DB000BD00B58DB005A8FFF74DFC0998E1
:10E24400002816D0089A0B9B002A06D1C0239B01F4
:10E254009A68F0239B029B1A5B08D318032201924D
:10E26400F02280089202049001A802920393FFF71F
:10E274007DFC0DB000BD000010B58CB005A8FFF703
:10E284002BFC0898002824D080230B9C5B01C31826
:10E29400A34211D9C0239B019B68834218D38021D8
:10E2A4000D4B4901E3185B085A0014195118821ADE
:10E2B400201CFFF77DFD0CE00323019380238008DD
:10E2C4005B01049001A802930394FFF74FFC00E064
:10E2D4000E200CB010BDC04600F0FFFF38B50B296E
:10E2E40001D8092037E003891B4C04335B00C318B1
:10E2F4000233C21A5218D2B22270012AF1D941183B
:10E304008B42EED8191C041C144801F0ABFB144BCF
:10E31400144A1988914203D025880B208D421AD1C2
:10E324005B88934203D062880B209A4213D1002366
:10E3340021898B420CD25A00A21852890A4882427F
:10E3440008D0C0208001808901339042F1D101E0DE
:10E354000B2000E0002038BD6A210020602100204D
:10E3640080100010FFFF0000FEFF000008B500222F
:10E37400FFF7DEFB021C06494B7808781B020343B7
:10E38400D31A5A1E93410B205B42184008BDC04665
:10E3940060210020021C4378180293781B04034375
:10E3A40010781843D3781B061843704773DF7047FF
:10E3B40074DF704776DF70477ADF70477CDF704721
:10E3C4007FDF704781DF7047A9DF704700B50C28F5
:10E3D40014D801F0A1FA1513131313130913071317
:10E3E400130D0B0002200CE003200AE0042008E0D7
:10E3F400081F414248410623181A02E0062000E0A3
:10E40400012000BD002108B50A1CFDF7E3FE08BD8C
:10E41400002108B50A1CFDF7DDFE08BD10B5041C7B
:10E42400081C0321FFF7D2FF0321021C201CFFF765
:10E43400E3F8002803D000210A1CFDF7CBFE10BD31
:10E4440070B592B06B46D871DE1D0F4B03AD9B794E
:10E4540004ACAB700D4B0021201C38222B80FDF73F
:10E46400B1FE0223201C23700021013BA380A6607F
:10E4740023826561FEF71CFE002803D000210A1CDC
:10E48400FDF7A8FE12B070BD742100203015000005
:10E4940010B50C1C032814D0042821D1002908D05D
:10E4A400104B1888104B98421AD01321FFF782FFA3
:10E4B40010E0101C00F06AFB002811D0211C221C63
:10E4C4000CE0081C0121FFF781FF0121021C074811
:10E4D400FFF792F8002803D000210A1CFDF77AFE0A
:10E4E40010BDC0460A200020FFFF00007421002058
:10E4F400F0B5284F87B03D78002D49D1264C291C12
:10E50400201C1422FDF75EFE244B1E78002E25D01D
:10E51400234B1E1C5A1DD27F2436FF2A08D0052007
:10E52400FFF78EFF0123666023702572258213E0B6
:10E534001433009301AB02930123019602AE3373AB
:10E544006B46042004933571FFF77AFF022323728C
:10E5540026332570E6602382658208E00620FFF7F3
:10E564006FFF282326706660267223826682201C31
:10E57400FFF71CFF002803D000210A1CFDF72AFE28
:10E584008021A022074BC902D205D15001233B7040
:10E5940007B0F0BD6C210020E02100206B21002099
:10E5A400AC2100200C05000010B5041C88B0FEF757
:10E5B40077FE4048211CFFF751F82388142B64D0C0
:10E5C40016D8112B1FD0132B2ED0102B6FD1A023B4
:10E5D4008021394ADB05090399508021043AC90294
:10E5E4009950A288354B1A800022354B1A705EE090
:10E5F400192B2DD002D8182B4DD058E0522B4AD0CD
:10E60400552B18D053E005222E4B80211A60A123EC
:10E61400A022DB00D2050903D150FFF769FF0122D4
:10E62400264B52421A8042E0244B00211888264A85
:10E63400FFF7C6FE35E0A479002C38D11F4B132117
:10E644001888FFF7B7FE002831D0211C221C2CE0CB
:10E65400A379002B2BD11A4A13701A4B1A68511E36
:10E66400196000290ED103AC201C1422FDF7AAFD69
:10E674000523237023690434009303980ECCFFF719
:10E6840001F914E0FFF734FF11E0A0880F490022DC
:10E69400FFF798FE05E00021084B0A1C1888FFF7D5
:10E6A40093FE002803D000210A1CFDF793FD08B057
:10E6B40010BDC046742100200C0500000A20002073
:10E6C4006C2100200C200020A4210020AC2100207B
:10E6D4000022454B30B5E9211A70A0230332DB0533
:10E6E400C9005A50414989B05A50A1228021D20010
:10E6F400C90299508021090399503D4800F030FF28
:10E7040000286FD13B48FFF7DDFB00F001FA002839
:10E7140068D1394800F08EFF002802D10122374B1E
:10E724001A706A4611236846137035490722FFF7A9
:10E7340045FE002803D000210A1CFDF74BFD0C23E5
:10E74400002501AC2380DB1863807933FF33201C60
:10E754006560E380FFF730FEA84203D0291C2A1C21
:10E76400FDF738FD0021201C0C22FDF72BFD0523AD
:10E774002380244B24486360244B211CA360FEF7B0
:10E78400F3FD002803D000210A1CFDF723FD201C03
:10E7940000211C22FDF716FD1D4B201C6360802305
:10E7A400DB01A360032323731A4BA361FEF738FD37
:10E7B400002803D000210A1CFDF70CFD1E230122B2
:10E7C40015490B808B781343E0321340D53A134339
:10E7D400143293438B700723CB7009330B71FFF70B
:10E7E40087FE002009B030BD702100204C070000D6
:10E7F400ADE5030095E40300AC2100206B2100206B
:10E80400ACFB03008DE803007421002009E403003D
:10E81400CD0C000015E40300A4210020174B10B513
:10E824001888174B984209D01321FFF7C3FD00281D
:10E834001AD000210A1CFDF7CDFC15E0114B1A7803
:10E844001C1C002A10D0FFF7B3FD002803D00021C0
:10E854000A1CFDF7BFFC8021A123A022DB00C90212
:10E86400D205D15000232370FEF712FD002803D0F7
:10E8740000210A1CFDF7AEFC002010BD0A20002078
:10E88400FFFF00006C210020F0B50B788BB0092B42
:10E8940000D92DE1041C181C0D1C01F047F82C00B4
:10E8A400330046000A0013002300100118014A0037
:10E8B4001E01FFF707FC0421FFF788FD0421021C59
:10E8C400201C2FE0FFF7AAFF002803D000210A1C18
:10E8D400FDF780FCFFF71CFC002800D108E1FFF7DE
:10E8E40031FC05E1FFF79AFF0028F8D000210A1C4B
:10E8F400FDF770FCF3E701227E4B1A708B681A78DF
:10E904007D4B14E002267B4B1E708B681B78012B19
:10E9140000D0EDE0FFF784FB311CFFF757FD021C2C
:10E92400201C311CFEF768FEDCE00322714B1A70D8
:10E93400DEE0704B1E78022E2DD0032E56D0012E11
:10E9440000D0D5E006AF00211022381CFDF73AFCB8
:10E95400694B0C221B7803A800213B70FDF732FCA5
:10E964000322049703922B790C2BD9D1AD68281C70
:10E97400FFF710FD7860281DFFF70CFDB860281C18
:10E984000830FFF707FDF86003A8FFF7A1FA002895
:10E9940000D1ADE0C0E7012306938B6808930323FD
:10E9A4000A791A4000239A420FD0002104339B1A9B
:10E9B400DBB2994209D208982A79019000208A187A
:10E9C400019E920090510131F3E72A7906A8D318E9
:10E9D4009B080793FFF746FB002800D188E002213B
:10E9E400FFF7F4FC0221021C201C9BE7087930424B
:10E9F40003D0201C311C321C94E7404F0390391C77
:10EA040000F09AF8011E0FD1A968039A386801F042
:10EA140029F8039800F0F8F8011E05D103A9381C61
:10EA240000F004F9011E01D0201C45E004230693E4
:10EA3400039B06A89B0807933B680893FFF7B2FA69
:10EA4400019000280DD12E4A2B791168201C5B18E7
:10EA54001360311C0122FEF7CFFD0199002847D035
:10EA640043E0019B092B1DD1254B29791A6889188C
:10EA74001960244B1B78002B3AD0234A1388151CA9
:10EA8400013B9BB21380002B32D1201CFEF77EFD8C
:10EA9400002803D000210A1CFDF79CFB1B4B1B889C
:10EAA4002B8025E0386800F071F8011E02D0201C8C
:10EAB400FFF7B4FC201C0199FFF7B0FC18E0012219
:10EAC400104B1A708B88114A13800F4A03E00023FD
:10EAD4000C4A13700D4A13800AE0094B201C196874
:10EAE400FEF71CFD002803D000210A1CFDF772FB71
:10EAF4000BB0F0BD70210020AA210020F4210020D9
:10EB0400DC210020DA2100206E210020D821002001
:10EB14000020064B064A1870064B1A6002229860C1
:10EB24005A60D8601861586198617047CC260020FB
:10EB3400F8210020B026002070B50E22002921D033
:10EB44000024114B0C605D680A3AA5421AD096263F
:10EB54000832B600B04215D89720DA688000013236
:10EB6400DA601A69013D50435D601D682818086029
:10EB74000121081C904052180A401A61221C9D6908
:10EB840028439861101C70BDB02600201D4BF7B5BA
:10EB94009A68061C0420002A32D001215C69186896
:10EBA400A21A0A40111C9725AD004D4345190127AF
:10EBB400AE420CD18F4000200C1C99694F409F61DC
:10EBC40099699E68019159688C46311C0AE00131AB
:10EBD4003940A142E7D11020F2E700290DD0621C90
:10EBE40001393A4065460127AD196D1A00953D1C5F
:10EBF40095402A1C019D1542EFD0009A99605A60F5
:10EC0400FEBDC046B026002007490B6909685A1E9C
:10EC140001231340972292005343043ACB189B18C4
:10EC2400186000207047C046B026002030B50E2280
:10EC340000281BD0002919D00D4B0A3ADC68002C9F
:10EC440014D09A68013C01329A609722DC605C69B6
:10EC5400920062431D680134AA1802609620800065
:10EC640012580A600122144000225C61101C30BD5D
:10EC7400B026002082B00190019B002B15D0019B8F
:10EC8400013B01930A4BC046C046C046C046C0463D
:10EC9400C046C046C046C046C046C046C046C04640
:10ECA400C046013B002BEED1E6E702B07047C046F8
:10ECB400E703000021DF704720DF704737B5021CEF
:10ECC40018200C4C23785843201805690179022D2B
:10ECD40002D10948056803E014206843074D4559EB
:10ECE40018204343E018E3189C68103000949B6993
:10ECF400A84737BDD0260020E0270020C4270020E5
:10ED0400F7B5494C1E1C2378071C002B06D1131C95
:10ED1400334301D1023300E001232370237803201D
:10ED2400013B052B00D97EE0181C151C0A1C00F0C1
:10ED3400F3FD031523503E6A80235B055E69186961
:10ED440019691D6989B2514380B2AAB2704392080D
:10ED5400FFF7B0FF0223002864D064E0081CFFF72B
:10ED6400ABFF00285FD1002D1FD1002E19D13B78B5
:10ED7400042B14D1072315E08021490508694B6948
:10ED8400096980B289B2504359432A1CFFF792FFA4
:10ED9400002848D1002E04D13B78042B17D005233A
:10EDA40000E00423237000203DE003233AE08023A5
:10EDB4005B051869AB0080B2424398187B68796997
:10EDC4009A08FFF777FF00282DD13543D2D00623C8
:10EDD400E8E780204005036941690069AD00844685
:10EDE40098B242437B68D0186A466346D380D3887E
:10EDF400401959437B68321CC9184919FFF75AFF57
:10EE04000028C9D00FE080225205536910691169A6
:10EE140080B2584389B200F093FDFFF74DFF0028FC
:10EE240001D107232370FEBDE9270020F7B518247C
:10EE34003D4A17787C431419261C231D009323791B
:10EE44000836F5680192042B18D0052B4BD00F20FF
:10EE5400022B67D1354B70681F68A169A268344BD7
:10EE6400BF022818D21BC919C0199A4201D89208A6
:10EE740001E080225200FFF71DFF4EE01423B26828
:10EE8400802653432B497605CB189968D8685B686C
:10EE9400AB4204D10B1C4343A1688B4201D0022A2C
:10EEA4000AD13169281C89B200F04AFD1F4B1B6846
:10EEB400C018FFF701FF30E03169281C89B200F067
:10EEC4003FFD32693469431CA4B25C4318235F4399
:10EED40092B2019B4243DF19BB68AA1AEB18011CCA
:10EEE4009208E31A15E080277F053969281C89B246
:10EEF40000F026FD011C3A697368386992B2ED1876
:10EF04004A434B1C86B25E43A368AA1AEB189208C4
:10EF1400F31A9B080098FFF7F3FE002802D101239F
:10EF2400019A9370FEBDC046D0260020EC27002035
:10EF3400FF030000C4270020F8B5144D061C6F78A9
:10EF440004200A2F20D02C783C19E4B2092C01D9D2
:10EF54000A3CE4B2182044432C19201C0830A26156
:10EF6400021C26710832C0C9C0C2A360069B43605C
:10EF7400AB78002B01D0002003E0FFF757FF1128E6
:10EF8400F9D06B7801336B70F8BDC046D0260020F1
:10EF940008B5064B5B78002B01D1002005E0FFF794
:10EFA40045FF0028F9D01128F7D008BDD02600204D
:10EFB400F7B5364B9A781C1C002A65D000259D7045
:10EFC400334B1A781F1C082A04D1022800D0314B75
:10EFD4001D7043E0022803D0032855D10D2041E0E1
:10EFE400182120782C4E4143336861180133336073
:10EFF40008790196022804D18A689B02934210D2B0
:10F004002CE0052839D0042828D18968D01F46422D
:10F0140046418C46301C9B02291C634525D200289E
:10F0240028D00025281C3D70FFF748FE1823012036
:10F0340022785343E3181D719D6018615D619D61E1
:10F04400DD60019B1D606378013B63701318DBB2C4
:10F05400092B01D8237001E0093A2270FFF798FFC9
:10F06400002811D0FFF72AFE0EE00121002AD6D095
:10F07400291CD4E70029F1D0D3E7073A5142514182
:10F08400281C0029CBD0CCE7F7BDC046D0260020F1
:10F09400E9270020E8270020EC2700200023164A57
:10F0A40010B51360154A1370154A1370537093709A
:10F0B400131DF4320020012418705860DC601861BC
:10F0C4005861986018339342F4D10E4B1860802332
:10F0D4005B055A691B6999B2531E4B430A4A136074
:10F0E4000A4B186098601861D860094B18609880C2
:10F0F400084B1C7010BDC046EC270020E9270020F7
:10F10400D0260020D8270020DC270020C427002098
:10F11400E0270020E8270020F0B53A4B85B01B78A3
:10F124000824002B6AD00634002867D0002965D053
:10F1340003680393002B61D080235B051A6946683A
:10F1440092B2073C964259D80F2E57D98268019241
:10F15400002A53D02C4A58691268019D02921A69F8
:10F16400754392B24243029FEF19974246D81A69F7
:10F174000F1C92B2954206D91869311C80B200F076
:10F1840065FC00293AD10324344034D11F4B1B6859
:10F19400012B32D01421029A59437A601C4A3B60F5
:10F1A400029F50184760039F86608F500199171C77
:10F1B400C160154801688C46211C80267605326999
:10F1C400013192B289B2954203D9326992B2AD1A31
:10F1D40000E00025326992B29444326992B29542B9
:10F1E400EBD26246026014225A43BA181161074AEC
:10F1F4000133136002E0072400E00424201C05B05E
:10F20400F0BDC046E8270020DC270020D8270020D6
:10F21400C4270020F0B5041C1B4885B005780820DD
:10F22400002D2ED0063000292BD0002C29D02568A3
:10F234000738002D25D1154D2E68002E21D0666883
:10F24400EF680396AE686D687743BC46039F6544D8
:10F25400AF4216D2002A14D0B24212D8D518B54201
:10F264000FD80D1C03261D430930354209D13742FE
:10F2740007D1181C131C00900A1C0220211CFFF744
:10F284005BFE05B0F0BDC046E8270020C42700207F
:10F29400F0B5161C214A85B0127802930824002A7E
:10F2A40039D00634002936D0002834D00B68073C06
:10F2B400002B30D11A4F3A68002A2CD0BD68FB6865
:10F2C4004A686B439C467B689C44624523D2002E6B
:10F2D40021D0AE421FD8029BF318AB421BD8041CAA
:10F2E4000325029B1C432C4014D1154012D10396D4
:10F2F4000E1C9918039A029000F0B4FB1423326890
:10F30400301C5343039A03210092FF582A1C029B8A
:10F31400B84700E01024201C05B0F0BDE827002009
:10F32400C4270020154BF7B51B78041C0820002BBC
:10F3340023D00630002C20D023680738002B1CD1A2
:10F344000F4B1A68002A18D05F689E68DB686268F1
:10F354007343DB199A4210D2093093070DD1D01BA5
:10F364000D1C311C00F072FB07200A1E05D1009110
:10F374000338211C2B1CFFF7DFFDFEBDE82700200E
:10F38400C42700200C4B10B51A780823002A10D08B
:10F39400063300280DD000290BD00468002C08D0B7
:10F3A40006480A3B0268002A03D1023B0B60131C87
:10F3B4000460181C10BDC046E8270020E027002088
:10F3C40073B5114C25780824002D1AD00634002971
:10F3D40017D0002815D00568073C022D11D10B4E1B
:10F3E4003668002E0DD00E1C1E430934B60708D112
:10F3F4001C1C131C00940A1C011C281CFFF79CFDF8
:10F40400041C201C76BDC046E8270020E02700200D
:10F414000C4B07B51B78021C0820002B11D00630BA
:10F42400002A0ED013680738022B0AD1064B1B683A
:10F43400002B06D00B1C111C002203380092FFF78E
:10F444007BFD0EBDE8270020E027002026DF704763
:10F4540051DF704710DF704761DF704708B5081C43
:10F46400111C00F093F908BDF0B5264B85B01B784C
:10F47400002B45D0244B254E1D6834686A42554103
:10F4840062425441EDB2E4B20193002D36D103A897
:10F49400FFF7DEFF05280CD0002804D0291C2A1C05
:10F4A400FCF798FE06E0019B03981B6800939847BD
:10F4B40000E00125002C1ED1154B03A91B88012453
:10F4C4000B80144B1B68181C0093FFF7C5FF071E25
:10F4D400052F0BD0002805D000210A1CFCF77AFE6A
:10F4E400002403E00098336898473C1C002DCCD0DE
:10F4F400002CCAD004E0002D02D1C6E7002CDBD0DA
:10F5040005B0F0BDF0270020F8270020FC270020DC
:10F51400F2270020F427002038B5041C0720002916
:10F5240013D08D0711D1094801600949201C0A80B4
:10F53400084A09491360FFF78DFF002805D101220D
:10F54400064B16301A70FFF781FF38BDF4270020F0
:10F55400F22700200028002061F40300F027002097
:10F564000E23002802D0024B18600023181C704799
:10F57400FC2700200E23002802D0024B1860002331
:10F58400181C7047F827002008B5074B1B68002B90
:10F5940007D09847002806D000210A1CFCF71AFE61
:10F5A40001E0FFF761FF08BD00280020FEE700002E
:10F5B40070B5002822D10C1C09680E2300291BD029
:10F5C400104DA94210D06B1A2B2B09D80B1C4A1EC4
:10F5D4002C33934208D01E78681AC654013BF8E7CE
:10F5E400281C2C2200F03EFA281C2C210022FEF7B5
:10F5F4009FFA054B18800023236001E001230B6070
:10F6040070BDC046042800203028002007487045FB
:10F6140002D1EFF3098101E0EFF308818869023830
:10F624000078034A1047C04670470000FDFFFFFF03
:10F63400B5F5030038B50A4C0022051C2C21201C0A
:10F64400FEF776FA074B1A880B23824205D1281C51
:10F65400211C2C2200F006FA0023181C38BDC046D9
:10F66400042800203028002060DF704713DF704733
:10F6740018DF704710B5041C082904D00020011CB1
:10F68400021CFCF7A7FD23686068984710BD0000C2
:10F6940007B5044A0090019168460821FCF7CEFDA5
:10F6A4000EBDC04679F60300002008B5011C024ACD
:10F6B400FCF7C4FD08BDC04659F7030010B586B079
:10F6C400041C002102A81022FCF77CFD02230293F3
:10F6D400002C08D002A8FFF7CBFF002803D000219C
:10F6E4000A1CFCF777FDF0208002FFF7BFFF00281B
:10F6F40003D000210A1CFCF76DFD0920104950229B
:10F70400104BFFF709FF002803D000210A1CFCF767
:10F7140061FD002401A80470FFF7A6FFA04203D0F6
:10F72400211C221CFCF756FD0748FFF723FF002885
:10F7340003D000210A1CFCF74DFD06B010BDC046E5
:10F74400C42B0020ADF6030051F7030008B5FFF702
:10F754002FFC08BD08B5002904D00020011C021CA0
:10F76400FCF738FDFFF780FE08BD000008B508204F
:10F774001421054AFCF73EFD002803D000210A1C91
:10F78400FCF728FD08BDC046742A002008B5031CF8
:10F794000A1C0248191CFCF71DFD08BDEFBEADDEB6
:10F7A40037B58022544BD205D458B13C61424C4108
:10F7B400E4B2002C01D00021D150A023E92203217E
:10F7C400DB05D20099508021A122C902D2009950B0
:10F7D4004A4B1A68F0239B029A4204D00020011C71
:10F7E400021CFCF7F7FC80235B051A698023DB000D
:10F7F4009A4204D00020011C021CFCF7EBFC404B95
:10F8040000200093032105223E4BFDF7CBF800288E
:10F8140003D000210A1CFCF7DDFCA025E8233A4AAA
:10F82400DB00ED05EA50FEF7BDF8FEF705F9002808
:10F8340021D08022354BD202EA50FEF70CF9002881
:10F8440003D000210A1CFCF7C5FC01206040FFF72F
:10F8540035FFFFF78BFFFEF728F9002803D00021BE
:10F864000A1CFCF7B7FC8021A123A022C902DB00FB
:10F87400D205D15005E001206040FFF71FFFFFF7DC
:10F8840075FFA023A222DB05D2009A581D1CD303C6
:10F8940001D5002C0CD080241C4BE402EC50FEF764
:10F8A40097F800280CD000210A1CFCF793FC07E011
:10F8B400C0239B019868FDF7C5FF002805D1EAE73E
:10F8C400A123A022DB00D205D450C024A401A06847
:10F8D400FDF7B8FF002806D0FEF7AEF8002802D1E5
:10F8E400A068FEF781F8BFF34F8F094A094BDA602D
:10F8F400BFF34F8FFEE7C0461C0500001410001034
:10F9040095F60300342800200C0003000C050000C9
:10F914000400FA0500ED00E002B47146490849000C
:10F92400095C49008E4402BC7047C04603B471466A
:10F93400490840004900095A49008E4403BC7047F5
:10F94400002243088B4274D303098B425FD3030A1A
:10F954008B4244D3030B8B4228D3030C8B420DD32D
:10F96400FF22090212BA030C8B4202D312120902BB
:10F9740065D0030B8B4219D300E0090AC30B8B42F9
:10F9840001D3CB03C01A5241830B8B4201D38B03A7
:10F99400C01A5241430B8B4201D34B03C01A52414C
:10F9A400030B8B4201D30B03C01A5241C30A8B428F
:10F9B40001D3CB02C01A5241830A8B4201D38B027A
:10F9C400C01A5241430A8B4201D34B02C01A52411E
:10F9D400030A8B4201D30B02C01A5241CDD2C30990
:10F9E4008B4201D3CB01C01A524183098B4201D30C
:10F9F4008B01C01A524143098B4201D34B01C01AF7
:10FA0400524103098B4201D30B01C01A5241C3086E
:10FA14008B4201D3CB00C01A524183088B4201D3DD
:10FA24008B00C01A524143088B4201D34B00C01AC9
:10FA34005241411A00D20146524110467047FFE735
:10FA440001B5002000F00CF802BDC0460029F7D033
:10FA540003B5FFF775FF0EBC4243891A1847C04629
:10FA64007047C04670B50F2A32D9041C0C430B1CD6
:10FA7400A40731D1151C041C103D2D0901352D019D
:10FA840049191E6826605E6866609E68A660DE6826
:10FA94001033E66010349942F3D10F234519134013
:10FAA400032B1BD91C1F0023A4080134A400CE5827
:10FAB400EE500433A342FAD1ED18C91803231A40B7
:10FAC40005D00023CC5CEC5401339342FAD170BDD1
:10FAD400051C002AF5D1FAE7051CF2E71A1CF8E721
:10FAE400014A024B1A6070470024F40010200020E1
:10FAF4008022AA21FF23D205C90010B51D48535006
:10FB04001D4950501D4A11680B40111C012B19D17D
:10FB14001B4B1B681B0715D11A4BE0241A68F023F2
:10FB2400101C184022420BD1174A12681A4209D1FC
:10FB3400164A174B1A608022164B12021A6001E013
:10FB44003028F1D00B68DBB2012B12D10C4A1268B9
:10FB540012070ED1F0210B4A12680A40402A08D13C
:10FB6400094A12680A4204D1C1228021D200C9057F
:10FB74008B5010BD0F000F0024050000E00F00F0B3
:10FB8400E40F00F0E80F00F0EC0F00F0DFFF07C017
:10FB940004050040186C004023D1BCEA5F782315AB
:10FBA400DEEF1212000000004466755461726700B3
:10FBB40045C103001DC10300FFFFFFFF0500000056
:04FBC4000024F40025
:10FC000000000000000000000000000000000000F4
:10FC100000000000000000000000000000000000E4
:10FC200000000000000000000000000000000000D4
:10FC300000000000000000000000000000000000C4
:020000020000FC
:020000041000EA
:0410140000C0030015
:040000033000C0C544
:00000001FF
