:020000023000CC
:10C0000000400020C5C00300A9F00300A9F0030010
:10C010000000000000000000000000000000000020
:10C0200000000000000000000000000001F103001B
:10C030000000000000000000A9F00300A9F00300C8
:10C04000A9F00300A9F00300A9F00300A9F0030080
:10C05000A9F0030000000000A9F00300A9F003000C
:10C06000A9F00300A9F00300A9F00300A9F0030060
:10C07000A9F00300A9F00300A9F00300A9F0030050
:10C08000A9F0030049C40300A9F00300A9F00300CC
:10C0900005C50300A9F0030059F00300A9F003004F
:10C0A000A9F00300A9F00300000000000000000058
:10C0B0000000000000000000000000000000000080
:04C0C000000000007C
:10C0C40008B503F037FA09480949884202D0094AF9
:10C0D40003F01FFA0021084A084800F073F800F042
:10C0E4004BF803F01FFA03F0A5F8FEE70020002048
:10C0F400F8F5030014000000340800005420002068
:10C10400F8B5C046F8BC08BC9E467047F8B5C046B2
:10C11400F8BC08BC9E46704710B5064C2378002B2B
:10C1240007D1054B002B02D0044800E000BF0123D7
:10C13400237010BD5420002000000000F8F5030017
:10C1440008B5084B002B03D00748084900E000BF9E
:10C1540007480368002B00D108BD064B002BFBD019
:10C164009847F9E700000000F8F503005820002084
:10C1740014200020000000000E4B70B500251E1C8A
:10C184000D4CE41AA410A54204D0AB00F358984710
:10C194000135F8E7FFF7B4FF084B00251E1C084CD7
:10C1A400E41AA410A54204D0AB00F3589847013513
:10C1B400F8E770BD002000200020002000200020AF
:10C1C40004200020031C8218934202D0197001330A
:10C1D400FAE77047BFF34F8F024A034BDA60BFF3AD
:10C1E4004F8FFEE70400FA0500ED00E010B50324CC
:10C1F4000723144010D1094B1A604B1CDB009BB27F
:10C20400D218074B1A60074B1C70074B1C70074B66
:10C214001880074B1980231C181C10BD70200020A7
:10C22400742000207B2000207A2000207820002029
:10C234007C200020F7B5234B00921A88071C0E1CA3
:10C24400019309208A423BD3002400F09DFC1E4B3D
:10C254001E4918781E4B09881A78C0B2D2B2A44677
:10C264008A4202D20132D2B294461A4C251C844529
:10C2740008D01D781A780020D2B28A4201D2013245
:10C28400D0B2187000F088FC0420A54218D0124BDC
:10C29400EC001B681C19009B2360002F0ED0002E9D
:10C2A4000CD0019B391C18880C4B45431868321C70
:10C2B400401903F02EF9A680002001E00020A080A0
:10C2C400FEBDC046782000207A2000207C2000207B
:10C2D4007B200020FFFF000070200020742000203D
:10C2E40010B51049104A0B7812789A4219D00F48A9
:10C2F4000B780A780488D2B2DBB20020944201D9C8
:10C304000132D0B20A4A087010880A4A58431268A7
:10C31400DB001018084A1268D31899881B689847DC
:10C32400DFE710BD7A2000207B2000207C20002045
:10C3340078200020742000207020002010B543785D
:10C34400827801339A1A041C501E824152421340CF
:10C3540022780020934205D00B6018236078434371
:10C364006068C01810BD0000154B02205968C9054B
:10C37400C90D24D01039CBB25AB2002A0BDA0F22DD
:10C384001A40083AC24082400E49521803210B4019
:10C3940052688B4007E092080B4BC0329200D2588F
:10C3A40003230B40DB00DA40D3B29B09DBB200204D
:10C3B400012B04D0033B5A425A410230801A704781
:10C3C40000ED00E018ED00E000E100E08022194BF0
:10C3D4009202DA67D2218022174B520289005A5006
:10C3E40040395A5001212F225960101C0138C0468F
:10C3F400C046C046C046C046C046C046C046C04609
:10C40400C046C046C046F1D1996000230B49101CB8
:10C414000B600138C046C046C046C046C046C04650
:10C42400C046C046C046C046C046C046F1D1044AD4
:10C434001370704704E100E00010014080200020E8
:10C44400A820002070B50024224B5C649C64DC644A
:10C454001C655C609C60204B1E68731C39D01F4AAD
:10C464001F4BD3581F4A15685D1B2D022D0A242328
:10C474001D4A73431268D3185A68954215D3AD1AEE
:10C48400A4181A4A1E6A1268002A09D09869D96940
:10C494009047002807D000210A1CFFF79BFE02E00A
:10C4A4009A69D8699047731CE1D1114B114A1978E4
:10C4B40013788B4205D10133DBB2022B00D1002368
:10C4C400137013780C4A9B009C5080220B4B520330
:10C4D4005A6070BDFC1001409820002000100140FB
:10C4E40004050000802000208820002084200020F3
:10C4F4009420002095200020A0200020FCE100E0F2
:10C50400F0B5C249C24A0B68C2488BB003930078A5
:10C514001378984211D00133DBB2022B00D10023EF
:10C5240013701378BC4A9B009F58039BFB181B0293
:10C534001B0A0B600123049301E000270497B74B07
:10C544001B680593B64B1B780193B64B019A1B6885
:10C5540002920993B44B1B680093AC4B1B6808937D
:10C56400B24B1B780793059B029A013AD2B202920E
:10C57400FF2A68D0029AD500099A551929786A7851
:10C584008A42F1D018224A43AC7801316868C9B2B2
:10C59400641A8218601E8441107864422140022883
:10C5A40003D01A1C03284CD141E024205268504384
:10C5B4009446009A8018027D0692069C1A1C002C50
:10C5C4003FD01E1C1C1C721C08D0664508D02422B7
:10C5D4007243009C1219341C166AF4E71A1C23E0F7
:10C5E4001A1CB4420DD124225343009A9B181A6A90
:10C5F400531C06D101268E4B9E60069B0793002395
:10C6040008934368066A9C4624235C43009BE41811
:10C614002662741C08D024237343009C1B195E6893
:10C624006446B44664445C600023037509E0531C0B
:10C6340007D024235A43009BD21800231375126A8F
:10C64400F5E7131C9BE7754A089913606F4A11605C
:10C654006946764A097F1170049A002A09D1059A1D
:10C664009B1A5A1E9341DBB2029301235B429C4600
:10C674002BE06D4A002015680122524294465A1C50
:10C684001FD024225A43AA1851688F4205D2634806
:10C69400C91B03605160012316E07F1A4018002172
:10C6A400146951601175166A8C4208D00399D460DC
:10C6B40041180902090A916061469C461162331CC3
:10C6C400DDE7564A136002330293544B1B6803930D
:10C6D400544B1B680693544B1B6800934B4B1B68CD
:10C6E4000593524B1B780793039B019A013AD2B2EC
:10C6F4000192FF2A00D19FE0019A0699D2008A187C
:10C704006146013108D060462421414300986446C3
:10C714004118086A844628E0117850788842E4D0A9
:10C72400182048435468013120189478C9B2117014
:10C734008C4201D100211170017844681D1C01292B
:10C7440061D123316143009D69180E7D1D1C002EAB
:10C7540059D185688D60C568CD6005690D614069F2
:10C76400C8610798002800D08E608868059D314F05
:10C77400451B2D022D0ACE68BD4202D8AD194D606D
:10C784000AE0059D281A0002000A864202D9361AD8
:10C794004E6001E00020486000208860C8600130DD
:10C7A4000875023808622530061C66430099251C6A
:10C7B4008E19591C27D05843009D71682818456864
:10C7C400A94204D8691A4160251C33621BE01D1C70
:10C7D400049324206843009F38184768B94206D957
:10C7E400006AC91B0495471C05D0051CF1E77F1A94
:10C7F4004760281C049D716024214D4300993062D8
:10C804004D192C621D1C2B1C7AE7C0468020002089
:10C814009420002095200020A020002098200020B3
:10C824008C20002090200020882000209C200020C4
:10C8340000100140FEFF7F002F4A1360039A9342C9
:10C8440002D1029A002A52D05A1C4ED02B4A2C48AC
:10C85400116824225343CB185D682A492A4B0C588B
:10C864001B682A4EE21A1202120A37780332009227
:10C874000190002F1FD18020D1274002BF00C85152
:10C88400403FC851C02280272148BF025200875030
:10C89400076001272F200F600138C046C046C046FC
:10C8A400C046C046C046C046C046C046C046C04654
:10C8B400C046F1D13770009AAA4200D22A1CD3187C
:10C8C400A8221B021B0AD2008B50019A8958091B0B
:10C8D4000902090A1C1B24020331240AA14206D9B5
:10C8E40080220C4B92025A6001E0FFF76FFD002298
:10C8F400094B1A700BB0F0BD98200020882000204E
:10C90400040500000010014080200020A820002021
:10C9140000E100E0FCE100E09C200020F8B51E1CD2
:10C92400051C0F1C141C0720B3074FD1002E4DD03B
:10C93400FFF74CFD2421264B069A1A60254B1F70E5
:10C944004F43254BF1191E600A1C331C994204D035
:10C954000020187018752433F8E703201F4B187053
:10C964001F4B1960182318310E1C634300205160BB
:10C974001070507094700832C918B242F6D1012276
:10C98400184B52421A60184B80211870174BC5245B
:10C994001870C023FF26164A49035B00D150A40037
:10C9A4001359B3433F3E33431351A123116011493B
:10C9B400DB00CD50043C15590F4B2B40C0252D02F4
:10C9C4002B4313510D4BCA580D4B1A60F8BDC0468A
:10C9D4008420002096200020882000208C20002025
:10C9E40090200020982000209420002095200020F2
:10C9F40000E100E000100140FF00FFFF040500001B
:10CA040080200020114BF0B51C68071C0820002C66
:10CA14001AD00138002A17D0002F15D000250C4B4E
:10CA2400187885420FDA261C2434231C243B1B78F7
:10CA3400002B06D1012071703070B261181C3D606A
:10CA440002E00135EDE70420F0BDC0468820002057
:10CA540096200020F0B51F4B061C1C6885B00820EA
:10CA6400002C34D01C4B01381B789E422FD2042951
:10CA74002DD924237343E3181C780130012C26D1CB
:10CA84005B780027012B00D10F1C01920D1CFFF7CE
:10CA94006BFC124BC0001C6803A92418201CFFF770
:10CAA4004DFC031C0420002B11D001220C491A70E8
:10CAB4000C4A5E608A5800209A60019ADD605A61CF
:10CAC40080221F61039B52036370074B5A6005B0B9
:10CAD400F0BDC04688200020962000209020002031
:10CAE4000010014004050000FCE100E0154B37B5DF
:10CAF4001A680823002A22D0134B19780723884286
:10CB04001DD21D3343439A5C0823012A17D1051C07
:10CB1400FFF72AFC0D4BC0001C6801A92418201C37
:10CB2400FFF70CFC0423002809D08022023B037089
:10CB3400019B45606370064B52035A600023181C26
:10CB44003EBDC04688200020962000209020002072
:10CB5400FCE100E010B5041C082904D00020011CED
:10CB6400021CFFF737FB23686068984710BD00007C
:10CB740007B5044A0090019168460821FFF75AFB63
:10CB84000EBDC04659CB030072B6024A1368013386
:10CB940013607047AC200020034A1368013B136004
:10CBA400002B00D162B67047AC20002072DF7047C2
:10CBB40079DF70477DDF704765DF7047F0B500248B
:10CBC400061C251C87B00C9F00933B7803910292AE
:10CBD400019333889D423ADA7368A90059180422F4
:10CBE40005A802F096FC04AB05A8D91C0022FFF7A7
:10CBF400E3FF002835D104ABDB78029A934222D1BB
:10CC04006242624102993B78520059188A181F2ADD
:10CC14001BDC002C07D169469A1C3A700133009A38
:10CC2400097BDBB2D15404ABDC1C3A78009B05A829
:10CC34009A18211CFFF7C0FF002812D12378012481
:10CC44003A78D3183B700135C3E70C2009E0002083
:10CC5400844206D03B78019A013B9B1A0199009AC1
:10CC6400535407B0F0BDF7B5089E171C0096022276
:10CC7400051C1C1CFFF7A2FF002806D10096281CE7
:10CC8400391C1022231CFFF799FFFEBD0023F0B5C9
:10CC94001370037889B0061C0D1C141C002B03D1DF
:10CCA400B378002B4BD029E043780C201D2B00DDFA
:10CCB40050E10E2704ABFF181D23881C391C3B8050
:10CCC400FFF778FF002800D044E13378022B03D12A
:10CCD4003B8809221D2B08D97378002B03D09BB203
:10CCE40008221D2B01D908223B88DBB2591C29706C
:10CCF4006A70227802329B182370D1E723780C20C3
:10CD04001B2B00DD26E10E2704ABFF18381CFFF7B0
:10CD14004FFF002800D01DE123785A1C2270032203
:10CD2400EA5423785A1C22701922EA5423783A8848
:10CD3400EB181A70120A5A70237802332370F378AE
:10CD4400002B0ED023785A1C22700222EA54237836
:10CD54005A1C22700122EA5423789A182270F2781D
:10CD6400EA547368002B12D01A7823780C201C2BF9
:10CD740000DDEFE0591C21700221E9542378591C8D
:10CD840021700A21E9542378591C2170EA5433890B
:10CD9400002B03D1338A002B16D00AE0301C0094F8
:10CDA4000830022106222B1CFFF75DFF0028F1D07A
:10CDB400D0E0301C00941030032107222B1CFFF715
:10CDC40052FF002800D0C5E0338B002B0AD0301C62
:10CDD40000941830142115222B1CFFF744FF00285F
:10CDE40000D0B7E0336A002B49D022780C2004929B
:10CDF40006321F2A00D9ADE019880538052900D864
:10CE0400A8E0554A554F8A1892B2BA4200D8A1E018
:10CE14005A880392052A00D89CE04F4FBC4694449C
:10CE2400674602AA97819789BC464C4FBC4500D8F7
:10CE340090E04B4FB94205D0039ABA4202D09142D6
:10CE440000D987E0049A04990132227005226A54B9
:10CE54002278511C21701221A95422781988AA1809
:10CE64001170090A517022780232D2B222705988A4
:10CE7400AB181970090A5970237802332370776A42
:10CE8400002F29D03A792178931C881CDBB2C3186F
:10CE94000C201F2B5EDC4B1C033223706A54237856
:10CEA4005A1C2270FF22EA5423783A88EB181A702D
:10CEB400120A5A7023780233DBB22370BA88002A2C
:10CEC4000AD0B9680538002944D0E81802F021FBDB
:10CED400BA882378D3182370331C2C3305931B781A
:10CEE400002B01D1002035E0B36A002B31D00023A0
:10CEF4000493059B049A1B789342F3D90C27049B53
:10CF040022785F43B36A511CDF193B7921700333E4
:10CF1400AB5423785A1C22701622EA5423783A8898
:10CF2400EB181A70120A5A7020780230C0B22070BE
:10CF3400BA88002A09D0B96800290AD0281802F052
:10CF4400E8FABA882378D3182370049B0133DBB240
:10CF5400CEE7072009B0F0BD7FF3FFFF7DF30000AB
:10CF6400FFFF0000F0B593B06B466A469E1D002398
:10CF7400D71D0D1C33703B70984204D0C3785B07F7
:10CF84000FD407201DE0041C002D03D0EB78002BE8
:10CF9400F7D10EE02A1C31783B78201CFFF706FEFF
:10CFA4000FE002A9321CFFF771FE02AC0028EBD09F
:10CFB40007E03A1C281C0AA9FFF768FE0AAA002801
:10CFC400E9D013B0F0BD75DF704776DF70477ADFC4
:10CFD40070477BDF70470000174B37B51888174B35
:10CFE400984227D0164A174D13782C1C0133DBB214
:10CFF4001370297B994208D31349FFF7E4FF0028F3
:10D0040018D0AB69002B14D114E0002313702B7CCF
:10D01400002B08D03B21FFF7D8FF002803D0AB69D1
:10D02400002B00D098476369002B03D0002201A88D
:10D034000270984737BDC046DC200020FFFF000087
:10D04400BA200020BC200020DE20002037B5184B79
:10D05400184A5B881188184C184D99420CD852888C
:10D064009A4209D36369002B03D0012201A80270FC
:10D07400984700232B7037BD2B78002B05D06369AC
:10D08400002BF6D001A80022F1E70D4B1B78002BF2
:10D0940001D1616800E0A1680A4B00221868FFF71B
:10D0A400D9FC0028E5D0A369002BE1D1E1E7C04613
:10D0B400B2200020DE200020BC200020B020002070
:10D0C400BA200020D8200020144938B5021C0B1CBB
:10D0D40032CA32C332CA32C31268114C1A600022F7
:10D0E400104B01681A70201C914213D0083202F0D0
:10D0F40010FA201CFFF76BFF00280ED1012200213B
:10D10400094B52421A80094B094A0A481970FFF721
:10D1140079FC02E0FFF75DFFEEE738BDBC2000209C
:10D12400DE200020B0200020DC200020BA200020D7
:10D13400DDCF0300D820002008B5024B1868FFF7A4
:10D14400D5FC08BDD820002010B50388112B19D0B8
:10D1540002D8102B05D043E0122B3AD0502B21D00B
:10D164003EE0011C82881F4B16311A801E4808229B
:10D1740002F0CFF900221D4B1A701D4BDB8993423C
:10D184002ED12BE00122174B52421A800022174B5A
:10D194001A70184B1868FFF7A9FC002820D0144B0C
:10D1A4009B6912E0124CC188E289914218D1C38B69
:10D1B400022B15D10130C37FDB070FD40D4B186848
:10D1C400FFF794FC00280BD0A369002B08D09847E4
:10D1D40006E0811D0822044802F09BF9FFF736FFA0
:10D1E40010BDC046DC200020B2200020BA20002060
:10D1F400BC200020D8200020A0DF7047A2DF7047A9
:10D20400A5DF7047A6DF7047A8DF704763DF70476C
:10D21400F0B50E2497B0002800D1C4E0002900D155
:10D22400C1E04B68002B00D1BDE001235B420380C9
:10D23400009110225D49051C06A802F06AF90A2132
:10D244005B4B04AE338002AB06A8C918FFF7DEFFC0
:10D25400041E00D0A7E02A1D0120311CFFF7CCFFDB
:10D26400041E00D09FE0B6780FAFAE71211C1C22C3
:10D27400381CFEF7A7FF04223B78211C13433B70A4
:10D2840002AB9E734B4B02AA94809381012210231C
:10D29400134302AA537103230AAE9371301C142260
:10D2A400FEF790FF05AB0A9303AB73601423B381BD
:10D2B4002B1CA888391C321C0833FFF79FFF041E5F
:10D2C40071D1211C1C22381CFEF77CFF08223B78FC
:10D2D400211C1343921813433B70AB7902AA937336
:10D2E400354B948093810F22A3B21B0A93430E3AC9
:10D2F40013430E3213400132134302AA5371132312
:10D30400301C93711422FEF75DFF05AB0A9303AB47
:10D3140073601723B3812B1CA888391C321C10336B
:10D32400FFF76CFF041E3ED1211C1C22381CFEF7A3
:10D3340049FF02223B78211C13433B70AB7902AABC
:10D3440093731E4B948093810F22E3B293430E3A5E
:10D3540013430E3213400132134302AA1371032301
:10D36400301C93711422FEF72DFF05AB336003AB21
:10D37400736002233381B381009B391C33612B1CFE
:10D38400A888321C2033FFF739FF041E0BD1009B01
:10D394005B680193AB62009B9B68002B00D0EB623F
:10D3A4000122074B1A70201C17B0F0BDE0F50300F2
:10D3B400301500003215000031150000341500004E
:10D3C400E6200020F0B5061C87B00E20002E29D0E0
:10D3D4003788154B06389F4224D0144B1B78002BFA
:10D3E40020D0134C0738A070080AE1702071080C93
:10D3F400090E0723A1716946102202ADCB8060712A
:10D404000021281C63702270FEF7DCFE338A381C6E
:10D414002B800123AB706B46291C0633AB60EC6098
:10D42400FFF7F0FE07B0F0BDFFFF0000E62000208C
:10D43400E7200020F0B5061C87B00E20002E27D070
:10D444003788144B06389F4222D0134B1B78002B8D
:10D454001ED01123114D6A462B700B0AAB700B0CB6
:10D46400EB70052302AC6970090ED3802971201C6E
:10D4740000211022FEF7A6FE338A381C23800123E4
:10D48400A3706B46211C0633A360E560FFF7BAFE68
:10D4940007B0F0BDFFFF0000E6200020E7200020D9
:10D4A400F0B5061C87B00E20002E22D03788124B10
:10D4B40006389F421DD0114B1B78002B19D0104DFC
:10D4C400102369706846032102ACC180AA70002150
:10D4D4001A1C201C2B70FEF775FE338A381C23801F
:10D4E4000123A3706B46211C0633A360E560FFF79C
:10D4F40089FE07B0F0BDC046FFFF0000E620002013
:10D50400E7200020F0B589B0002800D1AAE0002966
:10D5140000D1A7E0826A002A00D1A3E00B88112B76
:10D524001AD004D8102B00D09CE08B8816E00D1C78
:10D53400041C502B02D0512B12D093E0C9880389CC
:10D54400994200D08EE0082304A90B70EB8B2035A0
:10D554000B718D60904785E001235B42038081E07D
:10D564008A79022A00D07DE00A89038A9A4200D08F
:10D5740078E08B7A043B022B74D90223002201AE9B
:10D5840004AF01923B7033806B4673600088A18ABC
:10D59400321CFFF735FE002804D0E36A002B05D0C7
:10D5A400984703E06B461B78DB0707D4FE232088EB
:10D5B400FF33391CBB80FFF727FE4DE0B880391CD0
:10D5C4002088FFF721FE002846D1EB1CD97F481E96
:10D5D40007283DD801F0E8FE040E1B1D1F213A2345
:10D5E400002333702B8C012B02D8201C012108E06E
:10D5F400012308E0012333702A8C9A4203D8201CAB
:10D604000221062226E023353371B56019E0022396
:10D6140016E0032314E0042312E0052310E02B8C0E
:10D62400022B02D8201C082113E06B1DDB7F04357C
:10D63400EA7F1B021343B38001D1073300E00623C2
:10D644003370A36A201C311C98470BE00923F7E7C9
:10D65400201C0322FFF724FF002803D0E36A002BD9
:10D6640000D0984709B0F0BD48DF704711DF70471C
:10D6740013DF704708B5FFF7F7FF002803D0002138
:10D684000A1CFEF7A7FDFEF72BFE034B1B78023B9B
:10D69400022BF0D808BDC046EE20002008B5074B89
:10D6A4001878012802D1022900D11970002A04D067
:10D6B4000021101C0A1CFEF78DFD08BDEE20002081
:10D6C40010B50C4C1C21201C01F01CFC002803D0BC
:10D6D40000210A1CFEF77EFD201C07491C220023A2
:10D6E40001F000FC002803D000210A1CFEF772FDA3
:10D6F40010BDC046F0200020F8200020036807B5C4
:10D70400013301D1002017E001A800F053F9019B77
:10D714001A78012AF6D100225988914206D0C021F4
:10D7240089018868996800F069F9021C019B58888E
:10D73400801A42425041C0B20EBD0000844684B0FB
:10D74400F0B585B01D1C0D936346C4B20A901B0C42
:10D7540003A80F1C0B91161C0C92019300F02AF9DC
:10D76400002C09D16A46374B9288FF215A80012246
:10D774009D601A70197140E0012C14D16A46314B36
:10D784009288DF605A80F21952199A60A5221A70A1
:10D794005A321A710E9A1E615D619A612A4B1C708D
:10D7A400FFF78EFF49E0032C0ED1039A254B117825
:10D7B40019705188926859809A60AA22DF601A71A0
:10D7C4001E615D61A93A18E0022C19D1039A1D4B20
:10D7D4001178A52905D100225A809A60FF321A7067
:10D7E40004E019705188926859809A60FF221A7176
:10D7F4000022DA601A615A610132134B1A70CFE7C2
:10D80400052C09D101F02CF8002803D000210A1CB2
:10D81400FEF7E0FC03220EE0042C09D10022094BA0
:10D824005A809A60FF321A70039A12791A71B7E714
:10D83400062C02D10422044B1A7005B0F0BC08BCBB
:10D8440004B01847F8200020EE2000201FB5002166
:10D8540001A80C22FEF7B6FC074B019301F00CFB68
:10D86400002806D1FF2305499B0201A84B6001F063
:10D8740025FB05B000BDC046A1D60300F020002062
:10D8840010B500F029FA002805D100F02BFF041C84
:10D89400FFF7F0FE201C10BD10B5FFF7E7FE0028CF
:10D8A40003D000210A1CFEF795FC0D4B19680023D8
:10D8B40001229A40114201D00A48C2670133202B49
:10D8C400F6D1C024A401A068FFF7D2FE002803D03B
:10D8D40000210A1CFEF77EFCA06800F071F810BD60
:10D8E40000E100E004E100E007B501A800F062F8FF
:10D8F400019B01201A78A52A04D01879AA3843423A
:10D904005841C0B20EBD10B500F016FC00280BD073
:10D91400642001F0C7F900F085FB002809D000213C
:10D924000A1CFEF757FC04E000F0E4FB021EEFD1F2
:10D9340011E000F001FC002803D000210A1CFEF7CE
:10D9440049FC00F0B9FB0022041E944203D0111CD0
:10D95400FEF740FC221C101C10BD10B588B003ACAF
:10D96400201C00211422FEF72DFC02232370002327
:10D974000434009303980ECCFFF7E0FEFFF77AFE21
:10D98400002008B010BD13B5041C01A800F012F863
:10D99400019B1A7822705A8862809A68A2601A7968
:10D9A4002271DA68E2601A6922615A699B696261CC
:10D9B400A36113BD014B03607047C04600FC030024
:10D9C400F0B5031C186880F308885868FF2464B213
:10D9D400EFF30585002D01D1A6460047251C061C42
:10D9E40021273FBAF0B40024002500260027F0B414
:10D9F400F92040B20047C046F0BDC04630B5002A09
:10DA040001D0138800E00B4B051C41188D420FD048
:10DA14002C785BBA9BB263401A1CDBB21B095340DF
:10DA2400180343409BB2DAB2520153400135EDE78B
:10DA3400181C30BDFFFF000018DF7047704700005E
:10DA440070B5141C1D1C022902D004290AD019E047
:10DA5400104B1B78052B15D10F4B04201B68002B92
:10DA64000DD10FE00B4E3378022B0BD10B4B5B68BF
:10DA740098470320084B30701B68002B02D0211CF0
:10DA84002A1C9847002C04D00021201C0A1CFEF7F5
:10DA9400A1FB70BD1C210020142100204421002082
:10DAA400012200B5074B89B01A7003AB04321A7017
:10DAB400079A039800920499059A069BFFF73EFE85
:10DAC40009B000BD28210020032300B589B003A8B4
:10DAD4000370074B1B884380064B079859689A6864
:10DAE400DB6800900398FFF729FE002009B000BD11
:10DAF4001A21002034210020012200B589B003AB93
:10DB04001A70084A12885A80C0239B019B680398A4
:10DB14000093054B59689A68DB68FFF70FFE0020F5
:10DB240009B000BD1A2100203421002010B588B0AE
:10DB340003AC201C00211422FEF744FB04232370B1
:10DB440000230434009303980ECCFFF7F7FD08B0CC
:10DB540010BD0000022208B50A480B4B18600B4B9D
:10DB64001A70C0239B019968F0239B02591A490833
:10DB740001F0C8F9002803D000210A1CFEF72AFB93
:10DB840008BDC0462C210020942100201C21002027
:10DB9400022208B50748084B1860084B1A70084B56
:10DBA400196801F0AFF9002803D000210A1CFEF720
:10DBB40011FB08BD20210020942100201C210020FD
:10DBC4009C21002070B5154C154D88B0201CE968C7
:10DBD40001F098F9002803D000210A1CFEF7FAFA94
:10DBE400104B201C5968EA68002301F07BF9061EDB
:10DBF40011D103AC311C1422201CFEF7E3FA0A4BAA
:10DC040022691B886380EB680398E3600092616873
:10DC1400A268FFF793FD301C08B070BD20210020DE
:10DC2400342100202C2100201A21002038B50F4B6C
:10DC340008221D78002D17D10D4C2068FEF756FFE1
:10DC4400002803D0291C2A1CFEF7C4FAF0212068FE
:10DC540000228903FEF7FEFE0022041E944203D034
:10DC6400111CFEF7B7FA221C101C38BD2821002015
:10DC740090210020F0B51F1C032385B0061C0190E1
:10DC8400940868460D1C009302910394FFF7D4FE98
:10DC940000281ED080235B019D4212D801236846D0
:10DCA4000093019602950394FFF7C6FE002810D155
:10DCB400032368460093019602950394FFF7BCFE84
:10DCC40007E0F01BE91B3A1C3B1CFFF7D3FF0028BD
:10DCD400E4D005B0F0BD0000F0B5002785B0002108
:10DCE4000C2201A8FEF76EFA1E4B1F4D01931F4B29
:10DCF40001A81F701E4B291C1F8001F0DFF81D4E68
:10DD0400041EBC4201D037702AE0C0231A499B018B
:10DD14000A1C9B686B6081CD81C2F0229202D21AE8
:10DD24005208164DD3184B60281C211C144AFEF7C8
:10DD340069FE002803D0211C221CFEF74BFAF021B7
:10DD4400286889030022FEF785FE002803D00021FD
:10DD54000A1CFEF73FFA00200A4B186001233370B7
:10DD640005B0F0BD45DA0300202100201821002071
:10DD74001A2100201C2100202C21002090210020A9
:10DD8400A5DA030098210020014B18607047C046B3
:10DD940014210020284B70B5191C426831CA31C1C6
:10DDA40012680A6019784A0702D506248A0741D105
:10DDB40003255868062428423CD19E682E4239D156
:10DDC400DA682A4236D1F02330181C4D82182A60B2
:10DDD40024199B019E422DD8C020F02380019B0270
:10DDE400CE070AD581685B1A9A4223D8144B154A88
:10DDF4001A60154A5A60154A0EE080681B1A5B08BF
:10DE04009A4217D80E4B124A1A60124A5A608A076D
:10DE140001D5114A00E0114A9A60114B08241B787D
:10DE2400012B07D1FFF702FF041E03D1044B28681E
:10DE34001B689847201C70BD342100209C210020C1
:10DE44004421002095DB030031DB0300FDDA0300ED
:10DE540059DB030041DA0300CDDA0300C9DB030018
:10DE64001C210020F8B5041C0E20002C2ED0A36821
:10DE740002309B072AD1164B1B78052B25D16368EA
:10DE8400144D154F9E002B683A68F318934204D939
:10DE940001235B422B60043818E0FFF7C7FE00281B
:10DEA40014D10E4BA1681868321C2B6801F01AF8C3
:10DEB40000280BD12B680930F6183B682E60F61A3F
:10DEC400731E9E417642304000E00820F8BDC046F3
:10DED4001C210020982100209C2100209421002056
:10DEE4000C4B70B51C68002C10D10B4E3378042BEE
:10DEF4000CD10A4D0A48297800F050F9002802D1C3
:10DF04000523337003E02C70041C00E00824201C5B
:10DF140070BDC046982100201C210020182100203B
:10DF240050210020F8B5134B1A78032A02D0042A92
:10DF340002D018E004221A700F4B1C68002C12D176
:10DF4400051CFFF773FE00280FD16B680B4E9A0077
:10DF540033789F18402F0AD80948A968C01801F0DF
:10DF6400D8FA377004E0082402E0041C00E0092415
:10DF7400201CF8BD1C21002098210020182100201D
:10DF84005021002038B50E4C08202378052B16D1DB
:10DF94000C4D0D4B2A681B68082093420FD10623B1
:10DFA4002370FFF743FE002809D1084B29681B683A
:10DFB400586800F03BF9002801D10723237038BDCD
:10DFC4001C2100209C210020982100209421002065
:10DFD40008B5094B08201B78072B0CD1074B186890
:10DFE400FEF784FD002803D000210A1CFEF7F2F896
:10DFF400034B9B68984708BD1C21002090210020FA
:10E0040044210020062200B589B003AB1A70079A98
:10E01400039800920499059A069BFFF78FFB09B0B9
:10E0240000BD0000F0B58DB005A8FFF7ACFC089C5E
:10E03400002C3CD080230B9D5B01E318AB422AD912
:10E044001C4BEE18C0239B019B687608A34209D39E
:10E05400802372005B01D1185019331CA21AFFF7F8
:10E0640009FE23E0802301275B01F31801A801972F
:10E07400029303930497FFF7DFFC002816D1802353
:10E0840001A85B010197029303930497FFF7D4FC63
:10E0940000280BD1DCE7012301938023A4085B0152
:10E0A40001A8029503930494FFF7C6FC041C201CEA
:10E0B4000DB0F0BD00F0FFFF00B58DB005A8FFF76F
:10E0C40062FC0998002813D0089A0B9B002A06D1F9
:10E0D400C0239B019A68F0239B029B1A5B08D31808
:10E0E40000228008039001A801920293FFF7A4FC88
:10E0F4000DB000BD00B58DB005A8FFF744FC09982C
:10E10400002816D0089A0B9B002A06D1C0239B0135
:10E114009A68F0239B029B1A5B08D318032201928E
:10E12400F02280089202049001A802920393FFF760
:10E1340083FC0DB000BD000010B58CB005A8FFF73E
:10E1440022FC0898002824D080230B9C5B01C31870
:10E15400A34211D9C0239B019B68834218D3802119
:10E164000D4B4901E3185B085A0014195118821A1F
:10E17400201CFFF77FFD0CE003230193802380081C
:10E184005B01049001A802930394FFF755FC00E09F
:10E194000E200CB010BDC04600F0FFFF38B50B29AF
:10E1A40001D8092037E003891B4C04335B00C318F2
:10E1B4000233C21A5218D2B22270012AF1D941187C
:10E1C4008B42EED8191C041C144801F0A2F9144B1C
:10E1D400144A1988914203D025880B208D421AD104
:10E1E4005B88934203D062880B209A4213D10023A8
:10E1F40021898B420CD25A00A21852890A488242C1
:10E2040008D0C0208001808901339042F1D101E01F
:10E214000B2000E0002038BDAA210020A02100200E
:10E2240080100010FFFF0000FEFF000008B5002270
:10E23400FFF7E4FB021C06494B7808781B020343F2
:10E24400D31A5A1E93410B205B42184008BDC046A6
:10E25400A0210020021C4378180293781B04034376
:10E2640010781843D3781B061843704770DF704743
:10E2740071DF704773DF704774DF704776DF704774
:10E284007ADF70477CDF70477FDF704782DF70473B
:10E29400A7DF7047A8DF7047A9DF7047AADF704780
:10E2A40067DF704700B50C2814D801F07DF815130A
:10E2B4001313131309130713130D0B0002200CE09F
:10E2C40003200AE0042008E0081F414248410623D5
:10E2D400181A02E0062000E0012000BD002108B564
:10E2E4000A1CFDF777FF08BD002108B50A1CFDF7DD
:10E2F40071FF08BD10B5041C081C0321FFF7D2FFF1
:10E304000321021C201CFFF7CBF8002803D00021B6
:10E314000A1CFDF75FFF10BD70B5104B8EB09B79E2
:10E3240001AD02ACAB700E4B061C0021201C302248
:10E334002B80FDF747FF0223201C23700021013BA3
:10E34400E6702381E560FEF70DFE002803D000216E
:10E354000A1CFDF73FFF0EB070BDC046C02100206F
:10E364003015000038B50C1C151C03281DD00428DA
:10E374002AD1002908D0154B1888154B984223D070
:10E384001321FFF77BFF19E0101C00F01FFC00288D
:10E3940003D0211C221CFDF71DFF0E4B1B68AB4252
:10E3A40012D10D480321012206E0081C0121FFF7C8
:10E3B40079FF0121021C0848FFF772F8002803D0F6
:10E3C40000210A1CFDF706FF38BDC04608200020C6
:10E3D400FFFF0000B0210020C0210020F0B52D4B2C
:10E3E4008DB01D780193002D51D12B4C291C201C7C
:10E3F4001822FDF7E7FE294B1E78002E2CD0291C8D
:10E40400102204A8FDF7DEFE254804A9102201F01D
:10E4140071F8244F061E08D10520FFF77DFF012364
:10E4240067602370267226821EE01D4B08AE02939D
:10E434000123337103AB089301230420337302AB2C
:10E444000A930397FFF768FF02232372263325708C
:10E45400E6602382658208E00620FFF75DFF28233B
:10E4640026706660267223826682201CFFF702FFF4
:10E47400002803D000210A1CFDF7ACFE8021A02255
:10E48400094BD205C902D1500123019A13700DB072
:10E49400F0BDC046AC2100203C220020AB2100206E
:10E4A400FD210020F62100200C05000070B5041C9D
:10E4B400AEB0FEF749FE8048211CFFF723F82388FD
:10E4C400142B00D1B1E02DD8102B3AD008D8022B50
:10E4D40000D0EEE0794B00211888FFF7E1FEB1E0AF
:10E4E400112B3FD0132B00D0E3E0754C02AE211C5E
:10E4F40006A8072201F00DF8E11D301C102201F0DE
:10E5040008F8211C0EAD1831281C1C2201F001F85A
:10E514006A4B852118886B4A08AB0C960B95FFF75C
:10E52400B3FE8FE0512B6CD005D8182B00D18CE0B2
:10E53400192B49D0BDE0522B00D186E0552B34D0A5
:10E54400B7E0A0238021604ADB05090399508021AC
:10E55400043AC9029950A288584B1A8000225B4B96
:10E564001A70A6E08023322108AA1380584B802019
:10E574001960A123A021514C0003DB00C905C85038
:10E5840020880EA90123FFF789FE002803D000216B
:10E594000A1CFDF71FFE4F4B1B78002B01D1FFF720
:10E5A4001DFF01235B42238083E0A479002C00D06B
:10E5B4007FE0424B13211888FFF760FE002800D14A
:10E5C40077E0211C221C6FE0A379002B71D13F4A14
:10E5D40013703F4B1A68511E196000290ED10EACFE
:10E5E400201C1422FDF7EEFD052323702369043457
:10E5F40000930E980ECCFFF7A1F85AE0FFF7EEFE59
:10E6040057E0A379002B54D0A27A043A022A50D8B6
:10E614000EA9022B00D001230B70C1235B008B8059
:10E62400264B1888FFF736FE0CE0254AE089538D07
:10E634000021984201D1111C1831A088073200230F
:10E64400FFF724FE002834D02CE01C4B224D1C88FC
:10E65400AC422CD0214B201C1B78002B1BD018491A
:10E66400082234310123FFF717FE021E19D1111CB1
:10E67400201C0223FFF710FE021E12D12A1C201CAC
:10E684000C21FFF705FE0222154BC318934310D04B
:10E69400082804D10DE0191C1A1CFFF7FDFD021E09
:10E6A40007D0101C00210A1CFDF794FD01E008228C
:10E6B400F7E72EB070BDC046C0210020082000201E
:10E6C400F6210020F02100200C050000AC210020E0
:10E6D4000C20002054220020FFFF0000AB2100206A
:10E6E400FECFFFFF0023504A30B513704F4AE92193
:10E6F4001370A0230322DB05C9005A504C4989B08A
:10E704005A50A1228021D200C902995080210903C4
:10E714009950484800F08AFC002800D082E046481E
:10E72400FFF732FB00F016FA051E7BD1434800F0D8
:10E73400F5FC01AC002803D10122414B1A7015E00D
:10E74400201CFFF795FD002803D0291C2A1CFDF787
:10E7540041FD637800200133211C6370FFF786FDBF
:10E76400002803D000210A1CFDF734FD6A4611235A
:10E774006846137033490722FFF784FD002803D04D
:10E7840000210A1CFDF726FD0C2300252380DB183D
:10E7940063807933FF33201C6560E380FFF770FDED
:10E7A400A84203D0291C2A1CFDF714FD0021201CBB
:10E7B4000C22FDF707FD06232380234B23486360C7
:10E7C400234B211CA360FEF723FD002803D0002166
:10E7D4000A1CFDF7FFFC201C00211C22FDF7F2FCA3
:10E7E4001C4B201C63608023DB01A3600323237381
:10E7F400194BA361FEF768FC002803D000210A1C12
:10E80400FDF7E8FCE023154A11780B400C210B437B
:10E8140014318B4313700723537009339370FFF73C
:10E82400DDFD002009B030BD54220020BC210020B1
:10E834004C070000B1E4030069E30300F621002063
:10E84400AB210020F0F50300DDE80300C021002027
:10E85400E1E20300CD0C0000EDE20300F021002012
:10E864000122194B10B51A70184B1888184B98428E
:10E8740009D01321FFF702FD00281AD000210A1C39
:10E88400FDF7A8FC15E0134B1A781C1C002A10D0C5
:10E89400FFF7F2FC002803D000210A1CFDF79AFCC4
:10E8A4008021A123A022DB00C902D205D15000237C
:10E8B4002370FEF741FC002803D000210A1CFDF759
:10E8C40089FC002010BDC0465422002008200020EE
:10E8D400FFFF0000AC210020F0B50B7889B0092BB4
:10E8E40000D924E1051C181C0C1C00F067FD2C0049
:10E8F400330046000A001300230007010F014A00F9
:10E904001501FFF73FFB0421FFF7CCFC0421021C97
:10E91400281C2FE0FFF7A4FF002803D000210A1CC5
:10E92400FDF758FCFFF754FB002800D1FFE0FFF788
:10E9340069FBFCE0FFF794FF0028F8D000210A1CD3
:10E94400FDF748FCF3E701227A4B1A708B681A78BA
:10E95400794B14E00226774B1E708B681B78012BD1
:10E9640000D0E4E0FFF7BCFA311CFFF79BFC021C6B
:10E97400281C311CFEF794FDD3E003226D4B1A7062
:10E98400D5E06C4B1E78022E2DD0032E54D0012ED0
:10E9940000D0CCE004AF00211022381CFDF712FC9B
:10E9A400654B0C221B7801A800213B70FDF70AFC83
:10E9B40003220297019223790C2BD9D1A468201C3D
:10E9C400FFF748FC7860201DFFF744FCB860201C6A
:10E9D4000830FFF73FFCF86001A8FFF7DBF90028D7
:10E9E40000D1A4E0C0E70B790321194010D05A1AD2
:10E9F4000432D2B29446181C0027A268461C17544D
:10EA0400F0B26045F8D10133DAB2531A03332371FB
:10EA140001230493A36804A8069323799B08059310
:10EA2400FFF780FA002800D181E00221FFF73AFCC9
:10EA34000221021C281C9DE70879304203D0281CBF
:10EA4400311C321C96E73D4E0190311C00F096F8C3
:10EA5400011E0FD1A168019A306800F05AFD019897
:10EA640000F0F0F8011E05D101A9301C00F0F8F8FF
:10EA7400011E01D0281C3EE004230493019B04A83A
:10EA84009B08059333680693FFF7ECF9071E08D13A
:10EA94002B4A237911685B1813603268294B1A607A
:10EAA40045E009281DD1264B21791A688918196077
:10EAB400254B1B78002B3AD0244A1388141C013BA5
:10EAC4009BB21380002B32D1281CFEF7B3FC002824
:10EAD40003D000210A1CFDF77DFB1D4B1B882380FE
:10EAE40025E0306800F072F8011E02D0281CFFF700
:10EAF40001FC281C391CFFF7FDFB18E00122124B16
:10EB04001A708B88124A1380104A03E000230E4ABD
:10EB140013700F4A13800AE0094B281C1968FEF78A
:10EB240051FC002803D000210A1CFDF753FB09B057
:10EB3400F0BDC046BC210020F5210020B8210020F2
:10EB440038220020B021002034220020B4210020EB
:10EB5400322200200020064B064A1870064B1A6029
:10EB6400082298605A60D8601861586198617047AB
:10EB740094230020582200207823002030B50E2250
:10EB840000291ED00025104B0D605C680A3AAC4287
:10EB940017D00832202814D82420DA68013C013226
:10EBA400DA601A695C6050431C682018086001210F
:10EBB4009140986901320143996107210A401A6121
:10EBC4002A1C101C30BDC046782300201C4BF7B50E
:10EBD4009A68061C0420002A30D007215C69186852
:10EBE400A21A0A40111C24254D434519AE420DD1E9
:10EBF4000C1C0121A1409869414000209961996948
:10EC04009F68019159688C46391C0CE00725013135
:10EC14002940A142E7D11020F1E700290CD00722B6
:10EC2400651C01392A40012696406546321C019E26
:10EC3400ED196D1A1642F0D099605D60FEBDC046B4
:10EC44007823002005490B6909685A1E07231340DD
:10EC540024225343CB1818620020704778230020E5
:10EC640030B50E22002818D0002916D00C4B0A3AD1
:10EC7400DC68002C11D09A68013C01329A6024228D
:10EC8400DC605C691D686243AA180260126A013480
:10EC94000A600722144000225C61101C30BDC0468B
:10ECA4007823002082B00190019B002B12D0019B9D
:10ECB4000948013B01930138C046C046C046C046DE
:10ECC400C046C046C046C046C046C046C046C04610
:10ECD400F1D1E9E702B07047E703000029DF70478C
:10ECE40028DF70470B1C37B5021C181CC9685D6807
:10ECF4008C0019780095034D0C3064595B69A0476A
:10ED040037BDC0468C24002038B51823184C22780F
:10ED14005A43A218151C13790835E868022B0DD044
:10ED2400042B23D180235B05196989B200F050FBC1
:10ED3400104B1B68C018FFF7D3FF12E00D4B6D6832
:10ED44001B68916992689B024019D21AC918C018AD
:10ED5400094B9A4201D8920801E080225200FFF741
:10ED6400BDFF002803D10123A37000E00F2038BDAC
:10ED74009823002098240020FF030000F8B5144DC8
:10ED8400061C6F7804200A2F20D02C783C19E4B29A
:10ED9400092C01D90A3CE4B2182044432C19201C44
:10EDA4000830A261021C26710832C0C9C0C2A36027
:10EDB400069B4360AB78002B01D0002003E0FFF7F3
:10EDC400A3FF1128F9D06B7801336B70F8BDC046EE
:10EDD4009823002038B5264A9378141C002B45D07C
:10EDE40000219170022808D003283FD118231178FC
:10EDF4000D2059435118043136E0157818226A431E
:10EE04001C48A21803689268013303609B02934272
:10EE140019D301606378013B63706B1CDBB2092B6F
:10EE240001D92B1C093B237018235D436519291D47
:10EE34000020FFF757FF002302212B71AB602961EB
:10EE44006B61AB61EB606378002B0FD0A378002B70
:10EE54000CD1FFF759FF002808D0112806D0182339
:10EE64002178594361180431FFF73CFF38BDC0468F
:10EE7400982300209824002000230C4A13600C4A95
:10EE8400137053709370131DF43200200221187014
:10EE94005860D96018615861986018339342F4D16E
:10EEA400044B1860044B1860586070479824002085
:10EEB40098230020942400208C24002010B5074CB3
:10EEC40004222368022B07D05A1C0B6022600168BD
:10EED400034A9B0099500022101C10BD942400206A
:10EEE4008C24002037B5CC180C43051C1020A40733
:10EEF40007D11C1C0E38131C00940A1C291CFFF794
:10EF04003DFF3EBD13B50022041C0B1C0092211CC6
:10EF14000420FFF733FF16BD2EDF704751DF704723
:10EF240010DF704761DF704708B5081C111C00F042
:10EF340077F908BDF0B5264B85B01B78002B45D07A
:10EF4400244B254E1D6834686A425541624254413F
:10EF5400EDB2E4B20193002D36D103A8FFF7DEFF32
:10EF640005280CD0002804D0291C2A1CFDF732F9EE
:10EF740006E0019B03981B680093984700E0012575
:10EF8400002C1ED1154B03A91B8801240B80144BA4
:10EF94001B68181C0093FFF7C5FF071E052F0BD035
:10EFA400002805D000210A1CFDF714F9002403E011
:10EFB4000098336898473C1C002DCCD0002CCAD054
:10EFC40004E0002D02D1C6E7002CDBD005B0F0BD73
:10EFD4009C240020A4240020A82400209E24002097
:10EFE400A024002038B5041C0720002913D08D0765
:10EFF40011D1094801600949201C0A80084A0949BD
:10F004001360FFF78DFF002805D10122064B16304F
:10F014001A70FFF781FF38BDA02400209E24002031
:10F02400AC2400202DEF03009C2400200E23002894
:10F0340002D0024B18600023181C7047A82400203B
:10F044000E23002802D0024B18600023181C7047BE
:10F05400A424002008B5074B1B68002B07D0984751
:10F06400002806D000210A1CFDF7B4F801E0FFF7E0
:10F0740061FF08BDAC24002008B5002904D000209D
:10F08400011C021CFDF7A6F8FFF754FF08BD0000A1
:10F09400002008B5011C024AFDF7CCF808BDC046A3
:10F0A4007DF00300FEE7000070B5002821D10D1C9F
:10F0B40009680E2300291AD00F4CA14210D0631AFC
:10F0C4003B2B09D80B1C4A1E3C33934208D01E78B4
:10F0D400601AC654013BF8E7201C3C2200F019FAE0
:10F0E400201C3C210022FEF789FC0023A0872B6012
:10F0F40001E001230B6070BD142000200323064AA5
:10F104005B429E4502D1EFF3098101E0EFF30881F0
:10F114008869023800781047ADF0030070B50E23FB
:10F12400002812D00A4C061C3C21201C0022FEF7A9
:10F1340065FCA58F0B23854207D1301C211C3C2282
:10F1440000F0E7F900230135A587181C70BDC046FF
:10F154001420002060DF704713DF704718DF70470A
:10F1640010B586B0041C002102A81022FDF72AF86D
:10F1740002230293002C08D002A8FFF7EFFF002817
:10F1840003D000210A1CFDF725F8F0208002FFF7C8
:10F19400E3FF002803D000210A1CFDF71BF8092017
:10F1A40012494822124BFFF71DFF002803D000210B
:10F1B4000A1CFDF70FF8002401236A4668460094F0
:10F1C40001941370FFF7C6FFA04203D0211C221C38
:10F1D400FDF700F80748FFF733FF002803D00021AC
:10F1E4000A1CFCF7F7FF06B010BDC046002600203D
:10F1F40095F00300FDF1030008B5FFF7EBFD08BD32
:10F2040008B508201421054AFCF7F0FF002803D0B4
:10F2140000210A1CFCF7DEFF08BDC046B024002014
:10F2240008B5031C0A1C0248191CFCF7D3FF08BDCF
:10F23400EFBEADDE802337B5524ADB059C58B13CA6
:10F2440061424C41E4B2002C01D000219950A0222B
:10F25400EF210320D205C9005050A121C900535009
:10F26400494B1A68F0239B029A4204D00020011CE7
:10F27400021CFCF7AFFF80235B051A698023DB00C7
:10F284009A4204D00020011C021CFCF7A3FF3F4B50
:10F2940000200093032105223D4BFDF73FFB00288E
:10F2A40003D000210A1CFCF795FFA025394A3A4BEC
:10F2B400ED05EA50FEF7CAFAFEF716FB002821D046
:10F2C4008022364BD205EA50FEF71DFB002803D0FE
:10F2D40000210A1CFCF77EFF01206040FFF740FF7D
:10F2E400FFF78EFFFEF739FB002803D000210A1C2C
:10F2F400FCF770FF8021A123A022C905DB00D20501
:10F30400D15005E001206040FFF72AFFFFF778FFA6
:10F31400A023A222DB05D2009A581D1C930501D517
:10F32400002C0CD080241D4BE405EC50FEF7A8FA09
:10F3340000280CD000210A1CFCF74CFF07E0C02376
:10F344009B019868FEF7DAF9002805D1EAE7A123C2
:10F35400A022DB00D205D450C024A401A068FEF78B
:10F36400CDF9002806D0FEF7BFFA002802D1A06824
:10F37400FEF792FABFF34F8F094A0A4BDA60BFF3E4
:10F384004F8FFEE71C0500001410001075CB03001E
:10F39400482600200C000300240700000C05000090
:10F3A4000400FA0500ED00E002B471464908490082
:10F3B400095C49008E4402BC7047C04603B47146E0
:10F3C400490840004900095A49008E4403BC70476B
:10F3D400002243088B4274D303098B425FD3030A90
:10F3E4008B4244D3030B8B4228D3030C8B420DD3A3
:10F3F400FF22090212BA030C8B4202D31212090231
:10F4040065D0030B8B4219D300E0090AC30B8B426E
:10F4140001D3CB03C01A5241830B8B4201D38B031C
:10F42400C01A5241430B8B4201D34B03C01A5241C1
:10F43400030B8B4201D30B03C01A5241C30A8B4204
:10F4440001D3CB02C01A5241830A8B4201D38B02EF
:10F45400C01A5241430A8B4201D34B02C01A524193
:10F46400030A8B4201D30B02C01A5241CDD2C30905
:10F474008B4201D3CB01C01A524183098B4201D381
:10F484008B01C01A524143098B4201D34B01C01A6C
:10F49400524103098B4201D30B01C01A5241C308E4
:10F4A4008B4201D3CB00C01A524183088B4201D353
:10F4B4008B00C01A524143088B4201D34B00C01A3F
:10F4C4005241411A00D20146524110467047FFE7AB
:10F4D40001B5002000F00CF802BDC0460029F7D0A9
:10F4E40003B5FFF775FF0EBC4243891A1847C0469F
:10F4F4007047C04630B50024944208D0035D651CB3
:10F504000C5DA34201D0181B02E02C1CF4E7002080
:10F5140030BD002310B5934203D0CC5CC4540133F6
:10F52400F9E710BD014A024B1A6070470024F40049
:10F53400102000208022AA21FF23D205C90010B583
:10F544001D4853501D4950501D4A11680B40111C51
:10F55400012B19D11B4B1B681B0715D11A4BE02437
:10F564001A68F023101C184022420BD1174A126863
:10F574001A4209D1164A174B1A608022164B1202FE
:10F584001A6001E03028F1D00B68DBB2012B12D1F4
:10F594000C4A126812070ED1F0210B4A12680A4075
:10F5A400402A08D1094A12680A4204D1C1228021A2
:10F5B400D200C9058B5010BD0F000F0024050000B8
:10F5C400E00F00F0E40F00F0E80F00F0EC0F00F0A3
:10F5D400DFFF07C004050040186C004023D1BCEADB
:10F5E4005F782315DEEF12120000000044667554A4
:04F5F40061726700D9
:10F5F80045C103001DC10300FFFF000032000000E9
:04F608000024F400E6
:10F60C0000000000000000000000000000000000EE
:10F61C0000000000000000000000000000000000DE
:10F62C0000000000000000000000000000000000CE
:0EF63C000000000000000000000000000000C0
:020000020000FC
:020000041000EA
:0410140000C0030015
:040000033000C0C544
:00000001FF
